:100000000C942A000C9447000C9447000C94470071
:100010000C9447000C9447000C94790D0C94990DA6
:100020000C944C0D0C9447000C9447000C94470022
:100030000C9447000C9447000C9447000C94470024
:100040000C9447000C9447000C9447000C94470014
:100050000C94470011241FBECFE5D4E0DEBFCDBF16
:1000600010E0A0E6B0E0E8EAF8E202C005900D92E8
:10007000A23EB107D9F710E0A2EEB0E001C01D9298
:10008000AA3FB107E1F70E947F000C9452140C9430
:100090000000DF93CF93CDB7DEB727970FB6F89464
:1000A000DEBF0FBECDBF8B837D836C835F834E83AA
:1000B0008E819F819A838983E981FA8181E090E032
:1000C00091838083E981FA818B818283E981FA813E
:1000D00085E090E094838383E981FA81168215821A
:1000E000E981FA818C819D819087878327960FB65D
:1000F000F894DEBF0FBECDBFCF91DF910895DF939F
:10010000CF9300D0CDB7DEB71A8281E089830E94F9
:10011000B1070E945E0C0E94D00D28EE30E081E411
:100120006CED7FEFA9010E94490021EF30E082E4ED
:100130006CED7FEFA9010E944900AFE5B0E0EFE56B
:10014000F0E0808180688C9307C00E94F3000E94D9
:1001500098028A818F5F8A838A81882319F4898132
:10016000823099F70E94DA000E94160689838981FD
:10017000833039F40E94C9030E94F3000E94980260
:10018000EBCF8981843099F40E94C90386E894E01A
:100190000E943A0D88EE90E00E94870C81EF90E07B
:1001A0000E94870C0E946D040E94680CD5CF0E94AB
:1001B0009F04D2CFDF93CF93CDB7DEB70E945E0C02
:1001C00080E060E00E94E00B80E690E00E94C40BBB
:1001D00081E060E00E94E00B8DE690E00E94C40B9D
:1001E000CF91DF910895DF93CF93CDB7DEB7AC9772
:1001F0000FB6F894DEBF0FBECDBF8091E400882318
:1002000009F081C08091E4008F5F8093E4000E9438
:100210005E0C80E060E00E94E00B8AE790E00E94C4
:10022000C40B80E090E0AAEFB3E48FA398A7A9A73E
:10023000BAA76FA178A589A59AA520E030E04AEF7A
:1002400054E40E945210DC01CB018BA39CA3ADA30C
:10025000BEA36BA17CA18DA19EA120E030E040E86F
:100260005FE30E94AC1188232CF481E090E09AA314
:1002700089A33FC06BA17CA18DA19EA120E03FEF8F
:100280004FE757E40E944C1118164CF56FA178A562
:1002900089A59AA520E030E040E251E40E94521086
:1002A000DC01CB01BC01CD010E947C0EDC01CB0145
:1002B0009AA389A30FC088EC90E098A38F8F8F8DAD
:1002C00098A10197F1F798A38F8F89A19AA101971F
:1002D0009AA389A389A19AA1009769F714C06BA179
:1002E0007CA18DA19EA10E947C0EDC01CB019AA372
:1002F00089A389A19AA19E8F8D8F8D8D9E8D019747
:10030000F1F79E8F8D8F0E945E0C80E060E00E946E
:10031000E00B88E890E00E94C40B81E060E00E945E
:10032000E00B1CA6F6C00E94B3068BA780E090E00D
:10033000AAE7B3E4898F9A8FAB8FBC8F698D7A8DD2
:100340008B8D9C8D20E030E04AEF54E40E945210E7
:10035000DC01CB018D8B9E8BAF8BB88F6D897E8935
:100360008F89988D20E030E040E85FE30E94AC1177
:1003700088232CF481E090E09C8B8B8B3FC06D89AF
:100380007E898F89988D20E03FEF4FE757E40E94E8
:100390004C1118164CF5698D7A8D8B8D9C8D20E053
:1003A00030E040E251E40E945210DC01CB01BC017C
:1003B000CD010E947C0EDC01CB019C8B8B8B0FC08E
:1003C00088EC90E09A8B898B89899A890197F1F75B
:1003D0009A8B898B8B899C8901979C8B8B8B8B89C2
:1003E0009C89009769F714C06D897E898F89988DE3
:1003F0000E947C0EDC01CB019C8B8B8B8B899C89B2
:10040000988B8F878F8598890197F1F7988B8F87C5
:100410008BA5882F90E00E943B0C80E090E0A6E145
:10042000B3E48B879C87AD87BE876B857C858D8584
:100430009E8520E030E04AEF54E40E945210DC0137
:10044000CB018F839887A987BA876F817885898543
:100450009A8520E030E040E85FE30E94AC118823F9
:100460002CF481E090E09E838D833FC06F8178857E
:1004700089859A8520E03FEF4FE757E40E944C11B1
:1004800018164CF56B857C858D859E8520E030E0C7
:1004900040E251E40E945210DC01CB01BC01CD01CD
:1004A0000E947C0EDC01CB019E838D830FC088EC03
:1004B00090E09C838B838B819C810197F1F79C83D7
:1004C0008B838D819E8101979E838D838D819E81FB
:1004D000009769F714C06F81788589859A850E9495
:1004E0007C0EDC01CB019E838D838D819E819A835E
:1004F000898389819A810197F1F79A83898381E0C1
:100500006CA50E94E00B8AE20E94C8098CA58F5F4F
:100510008CA78CA5882309F406CF0E945E0CAC96AC
:100520000FB6F894DEBF0FBECDBFCF91DF91089517
:10053000DF93CF93CDB7DEB76E970FB6F894DEBFDB
:100540000FBECDBF80E060E00E94E00B88E990E044
:100550000E94C40B81E060E00E94E00B1E8EF6C09A
:100560000E94B3068D8F80E090E0AAE7B3E4898F04
:100570009A8FAB8FBC8F698D7A8D8B8D9C8D20E08F
:1005800030E04AEF54E40E945210DC01CB018D8B25
:100590009E8BAF8BB88F6D897E898F89988D20E077
:1005A00030E040E85FE30E94AC1188232CF481E046
:1005B00090E09C8B8B8B3FC06D897E898F89988D55
:1005C00020E03FEF4FE757E40E944C1118164CF51E
:1005D000698D7A8D8B8D9C8D20E030E040E251E476
:1005E0000E945210DC01CB01BC01CD010E947C0EA7
:1005F000DC01CB019C8B8B8B0FC088EC90E09A8B3D
:10060000898B89899A890197F1F79A8B898B8B89D4
:100610009C8901979C8B8B8B8B899C89009769F7B0
:1006200014C06D897E898F89988D0E947C0EDC01B3
:10063000CB019C8B8B8B8B899C89988B8F878F852B
:1006400098890197F1F7988B8F878D8D882F90E08F
:100650000E943B0C80E090E0A6E1B3E48B879C878E
:10066000AD87BE876B857C858D859E8520E030E0DB
:100670004AEF54E40E945210DC01CB018F8398872B
:10068000A987BA876F81788589859A8520E030E0CF
:1006900040E85FE30E94AC1188232CF481E090E0F5
:1006A0009E838D833FC06F81788589859A8520E000
:1006B0003FEF4FE757E40E944C1118164CF56B853D
:1006C0007C858D859E8520E030E040E251E40E94EB
:1006D0005210DC01CB01BC01CD010E947C0EDC017B
:1006E000CB019E838D830FC088EC90E09C838B832D
:1006F0008B819C810197F1F79C838B838D819E81F7
:1007000001979E838D838D819E81009769F714C028
:100710006F81788589859A850E947C0EDC01CB01EA
:100720009E838D838D819E819A83898389819A811D
:100730000197F1F79A83898381E06E8D0E94E00B27
:100740008AE20E94C8098E8D8F5F8E8F8E8D8823DE
:1007500009F406CF0E945E0C6E960FB6F894DEBFC9
:100760000FBECDBFCF91DF910895DF93CF93CDB76B
:10077000DEB72E970FB6F894DEBF0FBECDBF82E076
:100780002E960FB6F894DEBF0FBECDBFCF91DF918E
:100790000895DF93CF93CDB7DEB760970FB6F89487
:1007A000DEBF0FBECDBF0E945E0C80E060E00E9405
:1007B000E00B88E890E00E94C40B81E060E00E94BA
:1007C000E00B188A7BC00E94B3068F8780E090E020
:1007D000AAE7B3E48B879C87AD87BE876B857C8552
:1007E0008D859E8520E030E04AEF54E40E9452104F
:1007F000DC01CB018F839887A987BA876F817885C1
:1008000089859A8520E030E040E85FE30E94AC11E2
:1008100088232CF481E090E09E838D833FC06F811C
:10082000788589859A8520E03FEF4FE757E40E945D
:100830004C1118164CF56B857C858D859E8520E0C6
:1008400030E040E251E40E945210DC01CB01BC01D7
:10085000CD010E947C0EDC01CB019E838D830FC0F5
:1008600088EC90E09C838B838B819C810197F1F7CE
:100870009C838B838D819E8101979E838D838D8147
:100880009E81009769F714C06F81788589859A8564
:100890000E947C0EDC01CB019E838D838D819E8125
:1008A0009A83898389819A810197F1F79A83898351
:1008B0008AE20E94C80988898F5F888B888988238B
:1008C00009F481CF0E945E0C60960FB6F894DEBFEB
:1008D0000FBECDBFCF91DF910895DF93CF93CDB7FA
:1008E000DEB70E945E0C8AEA90E00E94C40B81E0B1
:1008F00060E00E94E00B86EB90E00E94C40B8091C8
:10090000E2008823E1F3CF91DF910895DF93CF9345
:10091000CDB7DEB70E945E0C8AEA90E00E94C40B5D
:1009200081E060E00E94E00B81EC90E00E94C40B4B
:100930008091E3008823E1F3CF91DF910895DF9365
:10094000CF93CDB7DEB7AA970FB6F894DEBF0FBE30
:10095000CDBF0E945E0C8CEC90E00E94C40B80E046
:1009600090E0AAEFB3E48FA398A7A9A7BAA76FA1B5
:1009700078A589A59AA520E030E04AEF54E40E94CA
:100980005210DC01CB018BA39CA3ADA3BEA36BA132
:100990007CA18DA19EA120E030E040E85FE30E94B1
:1009A000AC1188232CF481E090E09AA389A33FC086
:1009B0006BA17CA18DA19EA120E03FEF4FE757E402
:1009C0000E944C1118164CF56FA178A589A59AA51F
:1009D00020E030E040E251E40E945210DC01CB0103
:1009E000BC01CD010E947C0EDC01CB019AA389A33E
:1009F0000FC088EC90E098A38F8F8F8D98A10197FE
:100A0000F1F798A38F8F89A19AA101979AA389A33F
:100A100089A19AA1009769F714C06BA17CA18DA14F
:100A20009EA10E947C0EDC01CB019AA389A389A11F
:100A30009AA19E8F8D8F8D8D9E8D0197F1F79E8F40
:100A40008D8F0E945E0C80E090E0A8E4B3E4898F73
:100A50009A8FAB8FBC8F698D7A8D8B8D9C8D20E0AA
:100A600030E04AEF54E40E945210DC01CB018D8B40
:100A70009E8BAF8BB88F6D897E898F89988D20E092
:100A800030E040E85FE30E94AC1188232CF481E061
:100A900090E09C8B8B8B3FC06D897E898F89988D70
:100AA00020E03FEF4FE757E40E944C1118164CF539
:100AB000698D7A8D8B8D9C8D20E030E040E251E491
:100AC0000E945210DC01CB01BC01CD010E947C0EC2
:100AD000DC01CB019C8B8B8B0FC088EC90E09A8B58
:100AE000898B89899A890197F1F79A8B898B8B89F0
:100AF0009C8901979C8B8B8B8B899C89009769F7CC
:100B000014C06D897E898F89988D0E947C0EDC01CE
:100B1000CB019C8B8B8B8B899C89988B8F878F8546
:100B200098890197F1F7988B8F878CEC90E00E9461
:100B3000C40B80E090E0AAEFB3E48B879C87AD877D
:100B4000BE876B857C858D859E8520E030E04AEFF1
:100B500054E40E945210DC01CB018F839887A9874F
:100B6000BA876F81788589859A8520E030E040E8F2
:100B70005FE30E94AC1188232CF481E090E09E8317
:100B80008D833FC06F81788589859A8520E03FEF0E
:100B90004FE757E40E944C1118164CF56B857C8585
:100BA0008D859E8520E030E040E251E40E945210A5
:100BB000DC01CB01BC01CD010E947C0EDC01CB012C
:100BC0009E838D830FC088EC90E09C838B838B8108
:100BD0009C810197F1F79C838B838D819E81019786
:100BE0009E838D838D819E81009769F714C06F81EC
:100BF000788589859A850E947C0EDC01CB019E83D5
:100C00008D838D819E819A83898389819A810197C1
:100C1000F1F79A8389830E945E0CAA960FB6F89426
:100C2000DEBF0FBECDBFCF91DF910895DF93CF938D
:100C3000CDB7DEB760970FB6F894DEBF0FBECDBF5D
:100C40000E94B3068F8780E090E0AAE7B3E48B8729
:100C50009C87AD87BE876B857C858D859E8520E0D2
:100C600030E04AEF54E40E945210DC01CB018F8344
:100C70009887A987BA876F81788589859A8520E0CA
:100C800030E040E85FE30E94AC1188232CF481E05F
:100C900090E09E838D833FC06F81788589859A859A
:100CA00020E03FEF4FE757E40E944C1118164CF537
:100CB0006B857C858D859E8520E030E040E251E4A7
:100CC0000E945210DC01CB01BC01CD010E947C0EC0
:100CD000DC01CB019E838D830FC088EC90E09C8368
:100CE0008B838B819C810197F1F79C838B838D8112
:100CF0009E8101979E838D838D819E81009769F7E8
:100D000014C06F81788589859A850E947C0EDC01EC
:100D1000CB019E838D838D819E819A838983898176
:100D20009A810197F1F79A8389838F858B3219F025
:100D30008F858D3261F48F858B3219F483E0888B37
:100D400008C08F858D3219F484E0888B02C08FEF44
:100D5000888B888960960FB6F894DEBF0FBECDBF32
:100D6000CF91DF910895DF93CF9300D0CDB7DEB759
:100D70001A824CC0E4E3F0E08A81282F30E080E161
:100D800090E002C0880F991F2A95E2F78083E5E37F
:100D9000F0E08A81282F30E080E190E0022E02C04E
:100DA000880F991F0A94E2F780958083198228C0E2
:100DB000E3E3F0E08081282F30E08981882F90E004
:100DC000A90102C0559547958A95E2F7CA0181703D
:100DD0009070009791F48981882F90E0880F991F77
:100DE000880F991F982F8A81890F8F5F0E940B07A8
:100DF0000F900F90CF91DF91089589818F5F898344
:100E000089818430A8F28A818F5F8A838A818430C5
:100E100008F4B0CFADCFDF93CF9300D000D0CDB7E3
:100E2000DEB789838981282F30E03C832B838B8137
:100E30009C818830910509F470C02B813C81293058
:100E400031055CF58B819C818430910509F459C092
:100E50002B813C81253031059CF48B819C81823033
:100E6000910509F448C02B813C81233031050CF0F9
:100E700045C08B819C818130910509F439C067C0E0
:100E80002B813C812630310509F441C08B819C8146
:100E9000873091050CF03EC037C02B813C812C304F
:100EA000310509F446C08B819C818D3091055CF43D
:100EB0002B813C812A303105B1F18B819C818B30B3
:100EC0009105A4F52DC02B813C812E303105B9F15F
:100ED0008B819C818E3091057CF12B813C812F3060
:100EE000310579F18B819C818031910569F12FC0A9
:100EF00097E09A832EC028E02A832BC039E03A83FA
:100F000028C085E28A8325C094E09A8322C025E028
:100F10002A831FC036E03A831CC08AE28A8319C044
:100F200091E09A8316C022E02A8313C033E03A830B
:100F300010C08DE28A830DC09DE09A830AC01A8298
:100F400008C02DE32A8305C03BE23A8302C08981B1
:100F50008A838A810F900F900F900F90CF91DF912D
:100F60000895DF93CF93CDB7DEB7AAE3B0E0EAE30D
:100F7000F0E0808187608C93E7E3F0E08FEF80837F
:100F800088E30E94CC078CE00E94CC0781E00E949D
:100F9000CC07CF91DF910895DF93CF93CDB7DEB724
:100FA000E9970FB6F894DEBF0FBECDBF89AFABE3B4
:100FB000B0E0EBE3F0E080818B7F8C93ABE3B0E0BB
:100FC000EBE3F0E080818D7F8C9380E090E0A0E8FF
:100FD000BFE38DAB9EABAFABB8AF6DA97EA98FA9B8
:100FE00098AD20E030E04AEF54E40E945210DC015A
:100FF000CB0189AB9AABABABBCAB69A97AA98BA986
:101000009CA920E030E040E85FE30E94AC11882317
:101010002CF481E090E098AB8FA73FC069A97AA932
:101020008BA99CA920E03FEF4FE757E40E944C11A9
:1010300018164CF56DA97EA98FA998AD20E030E077
:1010400040E251E40E945210DC01CB01BC01CD0111
:101050000E947C0EDC01CB0198AB8FA70FC088ECFF
:1010600090E09EA78DA78DA59EA50197F1F79EA75D
:101070008DA78FA598A9019798AB8FA78FA598A941
:10108000009769F714C069A97AA98BA99CA90E9445
:101090007C0EDC01CB0198AB8FA78FA598A99CA7EC
:1010A0008BA78BA59CA50197F1F79CA78BA7ABE31A
:1010B000B0E0EBE3F0E0808181608C9380E090E031
:1010C000A0E8BFE38FA398A7A9A7BAA76FA178A5A7
:1010D00089A59AA520E030E04AEF54E40E9452101E
:1010E000DC01CB018BA39CA3ADA3BEA36BA17CA110
:1010F0008DA19EA120E030E040E85FE30E94AC11AA
:1011000088232CF481E090E09AA389A33FC06BA1CF
:101110007CA18DA19EA120E03FEF4FE757E40E9404
:101120004C1118164CF56FA178A589A59AA520E059
:1011300030E040E251E40E945210DC01CB01BC01DE
:10114000CD010E947C0EDC01CB019AA389A30FC0C4
:1011500088EC90E098A38F8F8F8D98A10197F1F77D
:1011600098A38F8F89A19AA101979AA389A389A196
:101170009AA1009769F714C06BA17CA18DA19EA1D3
:101180000E947C0EDC01CB019AA389A389A19AA1BC
:101190009E8F8D8F8D8D9E8D0197F1F79E8F8D8FF8
:1011A000E8E3F0E089AD808380E090E0A0E8BFE371
:1011B000898F9A8FAB8FBC8F698D7A8D8B8D9C8D2B
:1011C00020E030E04AEF54E40E945210DC01CB01F1
:1011D0008D8B9E8BAF8BB88F6D897E898F89988D13
:1011E00020E030E040E85FE30E94AC1188232CF45B
:1011F00081E090E09C8B8B8B3FC06D897E898F89CD
:10120000988D20E03FEF4FE757E40E944C111816ED
:101210004CF5698D7A8D8B8D9C8D20E030E040E21D
:1012200051E40E945210DC01CB01BC01CD010E94AF
:101230007C0EDC01CB019C8B8B8B0FC088EC90E08B
:101240009A8B898B89899A890197F1F79A8B898B77
:101250008B899C8901979C8B8B8B8B899C890097B0
:1012600069F714C06D897E898F89988D0E947C0EE4
:10127000DC01CB019C8B8B8B8B899C89988B8F8716
:101280008F8598890197F1F7988B8F87ABE3B0E052
:10129000EBE3F0E080818E7F8C9380E090E0A0E82B
:1012A000BFE38B879C87AD87BE876B857C858D85EB
:1012B0009E8520E030E04AEF54E40E945210DC01A9
:1012C000CB018F839887A987BA876F8178858985B5
:1012D0009A8520E030E040E85FE30E94AC1188236B
:1012E0002CF481E090E09E838D833FC06F817885F0
:1012F00089859A8520E03FEF4FE757E40E944C1123
:1013000018164CF56B857C858D859E8520E030E038
:1013100040E251E40E945210DC01CB01BC01CD013E
:101320000E947C0EDC01CB019E838D830FC088EC74
:1013300090E09C838B838B819C810197F1F79C8348
:101340008B838D819E8101979E838D838D819E816C
:10135000009769F714C06F81788589859A850E9406
:101360007C0EDC01CB019E838D838D819E819A83CF
:10137000898389819A810197F1F79A838983E99614
:101380000FB6F894DEBF0FBECDBFCF91DF910895A9
:10139000DF93CF93CDB7DEB7E9970FB6F894DEBFF2
:1013A0000FBECDBF89AFABE3B0E0EBE3F0E08081EF
:1013B00084608C93ABE3B0E0EBE3F0E080818D7F61
:1013C0008C9380E090E0A0E8BFE38DAB9EABAFAB29
:1013D000B8AF6DA97EA98FA998AD20E030E04AEFA3
:1013E00054E40E945210DC01CB0189AB9AABABAB49
:1013F000BCAB69A97AA98BA99CA920E030E040E8A0
:101400005FE30E94AC1188232CF481E090E098AB5C
:101410008FA73FC069A97AA98BA99CA920E03FEFBB
:101420004FE757E40E944C1118164CF56DA97EA9A0
:101430008FA998AD20E030E040E251E40E945210C4
:10144000DC01CB01BC01CD010E947C0EDC01CB0193
:1014500098AB8FA70FC088EC90E09EA78DA78DA5B5
:101460009EA50197F1F79EA78DA78FA598A9019733
:1014700098AB8FA78FA598A9009769F714C069A9A1
:101480007AA98BA99CA90E947C0EDC01CB0198ABA8
:101490008FA78FA598A99CA78BA78BA59CA5019723
:1014A000F1F79CA78BA7ABE3B0E0EBE3F0E0808122
:1014B00081608C9380E090E0A0E8BFE38FA398A7C1
:1014C000A9A7BAA76FA178A589A59AA520E030E0C1
:1014D0004AEF54E40E945210DC01CB018BA39CA381
:1014E000ADA3BEA36BA17CA18DA19EA120E030E0A5
:1014F00040E85FE30E94AC1188232CF481E090E087
:101500009AA389A33FC06BA17CA18DA19EA120E0DD
:101510003FEF4FE757E40E944C1118164CF56FA1AE
:1015200078A589A59AA520E030E040E251E40E9428
:101530005210DC01CB01BC01CD010E947C0EDC010C
:10154000CB019AA389A30FC088EC90E098A38F8F5A
:101550008F8D98A10197F1F798A38F8F89A19AA1F8
:1015600001979AA389A389A19AA1009769F714C04A
:101570006BA17CA18DA19EA10E947C0EDC01CB0100
:101580009AA389A389A19AA19E8F8D8F8D8D9E8DFF
:101590000197F1F79E8F8D8FE8E3F0E089AD8083AE
:1015A00080E090E0A0E8BFE3898F9A8FAB8FBC8F7B
:1015B000698D7A8D8B8D9C8D20E030E04AEF54E46C
:1015C0000E945210DC01CB018D8B9E8BAF8BB88FAC
:1015D0006D897E898F89988D20E030E040E85FE357
:1015E0000E94AC1188232CF481E090E09C8B8B8BC3
:1015F0003FC06D897E898F89988D20E03FEF4FE74E
:1016000057E40E944C1118164CF5698D7A8D8B8D1C
:101610009C8D20E030E040E251E40E945210DC0159
:10162000CB01BC01CD010E947C0EDC01CB019C8B67
:101630008B8B0FC088EC90E09A8B898B89899A8973
:101640000197F1F79A8B898B8B899C8901979C8BE9
:101650008B8B8B899C89009769F714C06D897E8973
:101660008F89988D0E947C0EDC01CB019C8B8B8B2B
:101670008B899C89988B8F878F8598890197F1F743
:10168000988B8F87ABE3B0E0EBE3F0E080818E7F57
:101690008C9380E090E0A0E8BFE38B879C87AD87C8
:1016A000BE876B857C858D859E8520E030E04AEF86
:1016B00054E40E945210DC01CB018F839887A987E4
:1016C000BA876F81788589859A8520E030E040E887
:1016D0005FE30E94AC1188232CF481E090E09E83AC
:1016E0008D833FC06F81788589859A8520E03FEFA3
:1016F0004FE757E40E944C1118164CF56B857C851A
:101700008D859E8520E030E040E251E40E94521039
:10171000DC01CB01BC01CD010E947C0EDC01CB01C0
:101720009E838D830FC088EC90E09C838B838B819C
:101730009C810197F1F79C838B838D819E8101971A
:101740009E838D838D819E81009769F714C06F8180
:10175000788589859A850E947C0EDC01CB019E8369
:101760008D838D819E819A83898389819A81019756
:10177000F1F79A838983E9960FB6F894DEBF0FBE1E
:10178000CDBFCF91DF910895DF93CF9300D0CDB738
:10179000DEB79A8389830AC0E981FA8180810E9439
:1017A000C80989819A8101969A838983E981FA819E
:1017B0008081882389F70F900F90CF91DF91089552
:1017C000DF93CF9300D000D00F92CDB7DEB78A83DE
:1017D0006B838A81282F30E03D832C838C819D810F
:1017E00081309105C1F02C813D81223031052CF4EE
:1017F0008C819D81009761F019C02C813D81223040
:10180000310569F08C819D818330910561F00EC0B6
:101810008B8189830BC08B81805C898307C08B811E
:10182000805F898303C08B81805B89838981806825
:101830000E94CC070F900F900F900F900F90CF91B8
:10184000DF910895DF93CF9300D000D0CDB7DEB7FE
:1018500089836A835C834B8389816A810E94E00B60
:101860008B819C810E94C40B0F900F900F900F9062
:10187000CF91DF910895DF93CF93CDB7DEB7629715
:101880000FB6F894DEBF0FBECDBF9A8B898B8989C6
:101890009A899E012F5F3F4FB9014AE050E00E94B4
:1018A0000D14CE0101960E94C40B62960FB6F894F7
:1018B000DEBF0FBECDBFCF91DF910895DF93CF93F1
:1018C000CDB7DEB781E00E94CC07CF91DF910895BC
:1018D000DF93CF93CDB7DEB7EFE4F0E01082EEE414
:1018E000F0E01082EAE4F0E011821082A9E5B0E0B5
:1018F000E9E5F0E080818F7E8C93A9E5B0E0E9E531
:10190000F0E080818B7F8C93CF91DF910895DF93FE
:10191000CF9300D0CDB7DEB79A838983E981FA816E
:1019200080819181009729F5AFE4B0E0EFE4F0E029
:10193000808188608C93AEE4B0E0EEE4F0E08081DA
:10194000282F287FE981FA81838194818770822BF7
:101950008C93ACE4B0E0E981FA818581968111969F
:101960009C938E93A9E5B0E0E9E5F0E08081846086
:101970008C93E981FA81808191818130910509F010
:1019800074C0E981FA8182818134A9F5AFE4B0E0C5
:10199000EFE4F0E0808188608C93AEE4B0E0EEE4A8
:1019A000F0E0808188608C93AEE4B0E0EEE4F0E09B
:1019B0008081282F287FE981FA8183819481877033
:1019C000822B8C93ACE4B0E0E981FA818581968129
:1019D00011969C938E93AAE4B0E0E981FA81878105
:1019E000908511969C938E93A9E5B0E0E9E5F0E02F
:1019F000808180618C93E981FA8182818234A9F5AA
:101A0000AFE4B0E0EFE4F0E0808184608C93AEE47A
:101A1000B0E0EEE4F0E0808188608C93AEE4B0E06A
:101A2000EEE4F0E08081282F287FE981FA8183812C
:101A300094818770822B8C93ACE4B0E0E981FA81C9
:101A40008581968111969C938E93A8E4B0E0E981FC
:101A5000FA818781908511969C938E93A9E5B0E0D9
:101A6000E9E5F0E0808188608C930F900F90CF9132
:101A7000DF910895DF93CF9300D0CDB7DEB79A837F
:101A8000898389819A819093E7008093E6000F9083
:101A90000F90CF91DF9108951F920F920FB60F9282
:101AA00011242F933F934F935F936F937F938F9363
:101AB0009F93AF93BF93EF93FF93DF93CF93CDB7F4
:101AC000DEB7E091E600F091E7000995CF91DF9154
:101AD000FF91EF91BF91AF919F918F917F916F9106
:101AE0005F914F913F912F910F900FBE0F901F90DC
:101AF00018951F920F920FB60F9211248F93DF93B8
:101B0000CF93CDB7DEB78091E5008F5F8093E5007E
:101B10008091E500823029F41092E50081E0809305
:101B2000E300CF91DF918F910F900FBE0F901F9028
:101B300018951F920F920FB60F9211242F933F9377
:101B40004F935F936F937F938F939F93AF93BF93C5
:101B5000EF93FF93DF93CF93CDB7DEB7AFE5B0E060
:101B6000EFE5F0E0808180688C9381E08093E20073
:101B7000E091E600F091E7000995CF91DF91FF91A8
:101B8000EF91BF91AF919F918F917F916F915F91F5
:101B90004F913F912F910F900FBE0F901F9018956E
:101BA000DF93CF93CDB7DEB7EBE2F0E082E0808346
:101BB000EAE2F0E088E18083E0E4F0E086E8808318
:101BC000E0E4F0E01082E9E2F0E087E68083CF9184
:101BD000DF910895DF93CF930F92CDB7DEB789835E
:101BE000EBE2F0E08081882F90E0807290700097A7
:101BF000B9F3ECE2F0E0898180830F90CF91DF911F
:101C00000895DF93CF93CDB7DEB7EBE2F0E08081AC
:101C10008823DCF7ECE2F0E08081CF91DF9108953A
:101C2000DF93CF9300D00F92CDB7DEB79B838A832B
:101C300019820EC08981282F30E08A819B81FC01A6
:101C4000E20FF31F80810E94EA0D89818F5F8983F3
:101C50008981282F30E08A819B81FC01E20FF31FEC
:101C60008081882339F70F900F900F90CF91DF91EB
:101C700008950F931F93DF93CF9300D00F92CDB7AA
:101C8000DEB79B838A8319828981282F30E08A817D
:101C90009B818C01020F131F0E94010EF8018083AB
:101CA0000FC089818F5F89838981282F30E08A81E5
:101CB0009B818C01020F131F0E94010EF80180838B
:101CC0008981282F30E08A819B81FC01E20FF31F7C
:101CD0008081833231F78981282F30E08A819B818E
:101CE000FC01E20FF31F10820F900F900F90CF9125
:101CF000DF911F910F910895EF92FF920F931F9321
:101D00007B018C0120E030E040E05FE40E947C1128
:101D100088238CF0C801B70120E030E040E05FE4A8
:101D20000E94F40F0E94DC119B01AC012050304056
:101D30004040504806C0C801B7010E94DC119B0119
:101D4000AC01B901CA011F910F91FF90EF90089566
:101D5000A0E0B0E0EEEAFEE00C94D613DC012B012B
:101D6000FA019C91923008F439C1EB0188818230EC
:101D700008F433C1943069F4843009F02FC111960E
:101D80009C9111978981981709F428C1AAEDB0E0B8
:101D900025C1843009F421C18230A9F4923009F0C0
:101DA0001DC19A01AD0188E0EA010990AE01E90187
:101DB00009929E018150C1F7E201898111969C919F
:101DC0008923818308C1923009F407C112962D90AE
:101DD0003C901397EB018A819B811496AD90BD9046
:101DE000CD90DC901797EC80FD800E811F819101D2
:101DF000281B390BB90137FF04C066277727621B00
:101E0000730B603271050CF061C0121613066CF58D
:101E100037014801062E04C09694879477946794FE
:101E20000A94D2F721E030E040E050E004C0220FF5
:101E3000331F441F551F6A95D2F721503040404050
:101E400050402E213F2140235123211531054105CA
:101E5000510521F021E030E040E050E079018A01B5
:101E6000E628F728082919293CC0232BD1F1260E92
:101E7000371E35014601062E04C096948794779448
:101E800067940A94D2F721E030E040E050E004C0CB
:101E9000220F331F441F551F6A95D2F7215030403F
:101EA000404050402A213B214C215D212115310524
:101EB0004105510521F021E030E040E050E05901BA
:101EC0006A01A628B728C828D9280BC0821593050F
:101ED0002CF01C01AA24BB24650103C0EE24FF24BE
:101EE000870111969C91D20111968C91981709F453
:101EF00045C0992339F0A80197012A193B094C09DB
:101F00005D0906C0A60195012E193F09400B510B32
:101F100057FD08C011823382228224833583468391
:101F200057831DC081E081833382228288279927CD
:101F3000DC01821B930BA40BB50B84839583A683D2
:101F4000B7830DC0220F331F441F551F24833583D1
:101F5000468357838281938101979383828324816F
:101F6000358146815781DA01C9010197A109B1097B
:101F70008F5F9F4FAF4FBF4328F30BC091833382D6
:101F80002282EA0CFB1C0C1D1D1DE482F5820683D7
:101F9000178383E08083248135814681578157FFF1
:101FA0001AC0C901AA2797FDA095BA2F8170907019
:101FB000A070B0705695479537952795822B932B37
:101FC000A42BB52B84839583A683B78382819381C9
:101FD000019693838283DF0101C0D201CD01CDB789
:101FE000DEB7E2E10C94F213A0E2B0E0EAEFFFE02A
:101FF0000C94E21369837A838B839C832D833E83C5
:102000004F835887E9E0EE2EF12CEC0EFD1ECE0139
:102010000196B7010E9405138E010F5E1F4FCE017E
:102020000596B8010E9405138A8991E089278A8B59
:10203000C701B801AE01475E5F4F0E94A80E0E9423
:102040003012A096E6E00C94FE13A0E2B0E0EBE2C2
:10205000F0E10C94E21369837A838B839C832D8354
:102060003E834F835887F9E0EF2EF12CEC0EFD1ED6
:10207000CE010196B7010E9405138E010F5E1F4F1E
:10208000CE010596B8010E940513C701B801AE0143
:10209000475E5F4F0E94A80E0E943012A096E6E0B5
:1020A0000C94FE13A0E2B0E0E8E5F0E10C94D61346
:1020B00069837A838B839C832D833E834F835887E8
:1020C000CE010196BE01675F7F4F0E940513CE01CE
:1020D0000596BE016F5E7F4F0E9405139985923071
:1020E00088F089898230C8F0943019F4823051F434
:1020F00004C0843029F4923081F48AED90E0C6C0A7
:10210000923049F420E09A858A89981321E02A8741
:10211000CE010996BBC0823049F420E09A858A89B5
:10212000981321E02A8BCE014196B0C02D843E84C5
:102130004F8458886D887E888F88988CEE24FF2481
:102140008701AA24BB24650140E050E060E070E014
:10215000E0E0F0E0C10181709070892BE9F0E60CBD
:10216000F71C081D191D9A01AB012A0D3B1D4C1DC2
:102170005D1D80E090E0A0E0B0E0E614F704080503
:10218000190520F481E090E0A0E0B0E0BA01A901D7
:10219000480F591F6A1F7B1FAA0CBB1CCC1CDD1CDF
:1021A00097FE08C081E090E0A0E0B0E0A82AB92A3C
:1021B000CA2ADB2A3196E032F10549F0660C771C19
:1021C000881C991C5694479437942794C3CFFA855A
:1021D000EA892B893C898B859C85280F391F2E5FC6
:1021E0003F4F17C0CA0181709070892B61F016951E
:1021F0000795F794E79480E090E0A0E0B0E8E82A43
:10220000F92A0A2B1B2B76956795579547952F5FD3
:102210003F4F77FDE7CF0CC0440F551F661F771F58
:1022200017FD4160EE0CFF1C001F111F21503040B4
:10223000403090E0590790E0690790E4790760F337
:102240002B8F3C8FDB01CA018F779070A070B0702C
:1022500080349105A105B10561F447FD0AC0E11480
:10226000F1040105110529F0405C5F4F6F4F7F4F6E
:1022700040781A8EFE1711F081E08A8F4D8F5E8FA5
:102280006F8F78A383E0898FCE0149960E94301228
:10229000A096E2E10C94F213A8E1B0E0E2E5F1E1EE
:1022A0000C94E21369837A838B839C832D833E8312
:1022B0004F83588789E0E82EF12CEC0EFD1ECE01ED
:1022C0000196B7010E9405138E010F5E1F4FCE01CC
:1022D0000596B8010E9405138985823040F08989EE
:1022E000823028F0C701B8010E947D1301C08FEF32
:1022F0006896E6E00C94FE13A8E1B0E0E2E8F1E1B4
:102300000C94E21369837A838B839C832D833E83B1
:102310004F83588789E0E82EF12CEC0EFD1ECE018C
:102320000196B7010E9405138E010F5E1F4FCE016B
:102330000596B8010E9405138985823040F089898D
:10234000823028F0C701B8010E947D1301C08FEFD1
:102350006896E6E00C94FE13A8E1B0E0E2EBF1E150
:102360000C94E21369837A838B839C832D833E8351
:102370004F83588789E0E82EF12CEC0EFD1ECE012C
:102380000196B7010E9405138E010F5E1F4FCE010B
:102390000596B8010E9405138985823040F089892D
:1023A000823028F0C701B8010E947D1301C081E08E
:1023B0006896E6E00C94FE13ACE0B0E0E2EEF1E1EA
:1023C0000C94E61369837A838B839C83CE010196F8
:1023D000BE016B5F7F4F0E9405138D81823061F1DA
:1023E000823050F1843021F48E81882351F12EC047
:1023F0002F81388537FD20C06E812F3131051CF0CB
:102400006623F9F023C08EE190E0821B930B2985AF
:102410003A854B855C8504C0569547953795279539
:102420008A95D2F76623B1F0509540953095219565
:102430003F4F4F4F5F4F0EC020E030E040E050E094
:1024400009C02FEF3FEF4FEF5FE704C020E030E01F
:1024500040E050E8B901CA012C96E2E00C94021465
:10246000DF92EF92FF920F931F93FC01E480F580BF
:1024700006811781D1808081823048F480E090E02D
:10248000A0E1B0E0E82AF92A0A2B1B2BA5C0843072
:1024900009F49FC0823021F4EE24FF24870105C097
:1024A000E114F1040105110519F4E0E0F0E096C033
:1024B000628173819FEF623879070CF05BC022E87C
:1024C0003FEF261B370B2A3131052CF020E030E09E
:1024D00040E050E02AC0B801A701022E04C0769562
:1024E0006795579547950A94D2F781E090E0A0E070
:1024F000B0E004C0880F991FAA1FBB1F2A95D2F70E
:102500000197A109B1098E219F21A023B123009732
:10251000A105B10521F081E090E0A0E0B0E09A01D2
:10252000AB01282B392B4A2B5B2BDA01C9018F77A2
:102530009070A070B07080349105A105B10539F498
:1025400027FF09C0205C3F4F4F4F5F4F04C0215C05
:102550003F4F4F4F5F4FE0E0F0E02030A0E03A0700
:10256000A0E04A07A0E45A0710F0E1E0F0E07901AA
:102570008A0127C06038710564F5FB01E158FF4FFF
:10258000D801C7018F779070A070B070803491052A
:10259000A105B10539F4E7FE0DC080E490E0A0E0AC
:1025A000B0E004C08FE390E0A0E0B0E0E80EF91ED8
:1025B0000A1F1B1F17FF05C016950795F794E79490
:1025C000319687E016950795F794E7948A95D1F7A9
:1025D00005C0EE24FF248701EFEFF0E06E2F679532
:1025E00066276795902F9F77D794DD24D7948E2FF9
:1025F0008695492F462B582F5D29B701CA011F9197
:102600000F91FF90EF90DF900895FC01DB01408176
:1026100051812281622F6F7770E0221F2227221FB3
:102620009381892F880F822B282F30E0991F9927BB
:10263000991F11969C93119721153105A9F5411504
:1026400051056105710511F482E037C082E89FEF02
:1026500013969C938E9312979A01AB0167E0220F19
:10266000331F441F551F6A95D1F783E08C930DC02B
:10267000220F331F441F551F12968D919C91139763
:10268000019713969C938E931297203080E0380721
:1026900080E0480780E4580758F314962D933D9343
:1026A0004D935C93179708952F3F310579F44115A9
:1026B00051056105710519F484E08C93089564FF58
:1026C00003C081E08C9312C01C9210C02F57304081
:1026D00013963C932E93129783E08C9387E0440FDC
:1026E000551F661F771F8A95D1F7706414964D9316
:1026F0005D936D937C93179708951F93DC01FB0105
:102700009C91923008F447C08081823008F443C025
:10271000943051F411961C91843099F58181682F81
:1027200070E0611B71093FC0843021F0923031F4B8
:102730008230B9F18181882389F12DC011961C91D5
:1027400011978230F1F081811817D9F412962D91EA
:102750003C911397828193818217930794F02817F5
:102760003907BCF014968D919D910D90BC91A02DD0
:102770002481358146815781281739074A075B072D
:1027800018F4112341F00AC082179307A407B50774
:1027900040F4112319F061E070E005C06FEF7FEFA6
:1027A00002C060E070E0CB011F9108952F923F922C
:1027B0004F925F926F927F928F929F92AF92BF9251
:1027C000CF92DF92EF92FF920F931F93CF93DF93FD
:1027D000CDB7DEB7CA1BDB0B0FB6F894DEBF0FBE5A
:1027E000CDBF09942A88398848885F846E847D84A7
:1027F0008C849B84AA84B984C884DF80EE80FD80A9
:102800000C811B81AA81B981CE0FD11D0FB6F8941E
:10281000DEBF0FBECDBFED010895FB019F01E8941F
:102820004230C4F04532B4F44A3029F497FB1EF428
:10283000909581959F4F642F77270E943E14805D6D
:102840008A330CF0895D8193CB010097A1F716F4D0
:102850005DE251931082C9010C942E14DC01FC013D
:10286000672F71917723E1F7329704C07C916D93C4
:1028700070836291AE17BF07C8F30895AA1BBB1BF4
:1028800051E107C0AA1FBB1FA617B70710F0A61B70
:10289000B70B881F991F5A95A9F780959095BC0191
:0828A000CD010895F894FFCF6B
:1028A8002B3A204368616E6765205057002D3A2007
:1028B8004F70656E20446F6F720020202A2A57459A
:1028C8004C434F4D452A2A00456E7465722050616D
:1028D8007373776F72643A00436F6E6669726D2026
:1028E80050617373776F72643A00446F6F72206936
:1028F80073206E6F77004F70656E696E672E2E2E8F
:1029080000436C6F73696E672E2E2E0020202A2AD2
:10291800496E76616C69642A2A0000000000000094
:022928000000AD
:00000001FF
