:100000000C942A000C9447000C9447000C94470071
:100010000C9447000C9447000C94A0030C94C90363
:100020000C9479030C9447000C9447000C944700FF
:100030000C9447000C9447000C9447000C94470024
:100040000C9447000C9447000C9447000C94470014
:100050000C94470011241FBECFE5D4E0DEBFCDBF16
:1000600010E0A0E6B0E0ECE0F9E002C005900D92EF
:10007000AC3CB107D9F710E0ACECB0E001C01D9288
:10008000A73DB107E1F70E9463000C9484040C942F
:100090000000AEECB0E0FD0181E090E0819391932F
:1000A00081E4808385E090E014969C938E9313976F
:1000B00016961C921E9215978CED9FEF18969C93A6
:1000C0008E9317970895EF92FF920F931F93CF93FC
:1000D000DF930E9471020E94CD020E94F0030E94F1
:1000E0004900EFE5F0E080818068808310E001E066
:1000F0000F2EFBECEF2EF0E0FF2EF02DCEECD0E03B
:10010000112329F40E9478010E943401102F0E94CB
:10011000EE000E94A400813039F40E9401010E9487
:1001200078010E943401ECCF882359F40E94010128
:10013000C7010E947403CE010E94FD020E94DF00ED
:10014000DFCF0E94BA00DCCF0E94CA0120ED37E069
:1001500048EC50E0FA013197F1F721503040D1F7E7
:100160008B3211F481E008958D3211F08FEF0895F4
:1001700080E008950E94CD0280E690E00E94A002F7
:1001800020E23EE448EC50E0CA010197F1F721502B
:100190003040D1F708950E94CD028EE690E00E9493
:1001A000A00281E060E00E94AF028AE790E00E9436
:1001B000A002E8E5F0E0808184FFFDCF08950E9471
:1001C000CD028EE690E00E94A00281E060E00E94F5
:1001D000AF0285E890E00E94A00208950E94CD023F
:1001E00080E060E00E94AF0280E990E00E94A002FF
:1001F00081E060E00E94AF028DE990E00E94A002E1
:100200000895EF92FF921F93CF93DF930E94CD0248
:1002100080E060E00E94AF028AEA90E00E94A002C3
:1002200081E060E00E94AF0210E00F2EF0EDEF2EB3
:10023000F7E0FF2EF02DC8ECD0E00E94CA01970134
:10024000CE010197F1F721503040D1F78AE20E94A8
:1002500082021F5F153089F70E94CD02DF91CF9196
:100260001F91FF90EF900895CF92DF92EF92FF924F
:100270001F93CF93DF930E94CD0280E060E00E9445
:10028000AF028AEB90E00E94A00281E060E00E9451
:10029000AF0210E00F2EF0EDCF2EF7E0DF2EF02DA5
:1002A000C8ECD0E00F2EF4EFEF2EF1E0FF2EF02D92
:1002B0000E94CA019601CE010197F1F7215030400A
:1002C000D1F78AE20E9482029701CE010197F1F7ED
:1002D00021503040D1F71F5F153051F70E94CD02F9
:1002E000DF91CF911F91FF90EF90DF90CF90089515
:1002F000EF92FF921F93CF93DF930E94CD0280E095
:1003000060E00E94AF028AEA90E00E94A00281E0D1
:1003100060E00E94AF0210E00F2EF0EDEF2EF7E04C
:10032000FF2EF02DC8ECD0E00E94CA019701CE014B
:100330000197F1F721503040D1F78AE20E94820202
:100340001F5F153089F70E94CD02DF91CF911F9179
:10035000FF90EF9008950F931F93CF93DF9304EFD7
:1003600011E0C8ECD0E00DC00E94BA009801CE01A7
:100370000197F1F721503040D1F70E9478010E9497
:1003800034010E940404882379F3DF91CF911F91F7
:100390000F910895CF92DF92EF92FF920F931F93E8
:1003A000CF93DF9320E0EE24FF246894E4F804E385
:1003B00010E0C5E3D0E0CC24DD24E3E3F0E030E05E
:1003C000C701022E02C0880F991F0A94E2F7D801D4
:1003D0008C9380958883A601808190E0042E02C0D2
:1003E000959587950A94E2F780FD51C02F5FCA0169
:1003F000880F991F880F991F820F883081F18930EB
:1004000080F4843021F1853038F48230D1F08330AB
:10041000E0F4813099F517C08630E9F08730E8F4D0
:1004200018C08C3021F18D3028F48A30E1F08B3007
:10043000E0F417C08F30F9F08031F9F08E30F1F42C
:1004400018C088E01BC087E019C089E017C085E2AA
:1004500015C084E013C085E011C086E00FC08AE2B9
:100460000DC081E00BC082E009C083E007C08DE2CF
:1004700005C080E003C08DE301C08BE2DF91CF9126
:100480001F910F91FF90EF90DF90CF9008954F5FF5
:100490005F4F4430510509F09FCF2F5F243008F49F
:1004A0008FCF232F8DCFEBE3F0E090819B7F908364
:1004B00090819D7F908320ED37E0D9011197F1F76E
:1004C000908191609083D9011197F1F788BBC901A0
:1004D0000197F1F780818E7F8083C9010197F1F741
:1004E0000895EAE3F0E08081876080838FEF87BB27
:1004F00088E30E9453028CE00E94530281E00E9434
:1005000053020895EBE3F0E0908194609083908132
:100510009D7F908320ED37E0D9011197F1F790810D
:1005200091609083D9011197F1F788BBC9010197B8
:10053000F1F780818E7F8083C9010197F1F70895DB
:10054000CF93DF93EC018881882331F00E948202EF
:10055000219688818823D1F7DF91CF91089581304A
:1005600039F0813050F0823029F0833031F404C00A
:10057000605C03C0605F01C0605B862F80680E9482
:10058000530208950F931F938A010E94AF02C8017E
:100590000E94A0021F910F91089581E00E945302D2
:1005A00008950F931F93DF93CF93CDB7DEB7609776
:1005B0000FB6F894DEBF0FBECDBF8E010F5F1F4F89
:1005C000B8014AE050E00E943F04C8010E94A00226
:1005D00060960FB6F894DEBF0FBECDBFCF91DF910E
:1005E0001F910F9108951FBC1EBC1BBC1ABCE9E5EE
:1005F000F0E080818F7E80830895DC018D919C9155
:1006000011970097C9F4EFE4F0E08081886080835F
:1006100093B713968C9113978770987F892B8EBD13
:1006200015968D919C9116979DBD8CBDE9E5F0E0E6
:100630008081846080830895019709F054C01296E8
:100640008C911297813439F5EFE4F0E08081886075
:100650008083EEE4F0E08081886080838081806127
:10066000808393B713968C9113978770987F892B0B
:10067000808315968D919C9116979DBD8CBD179684
:100680008D919C9118979BBD8ABDE9E5F0E0808132
:10069000806180830895823431F5EFE4F0E0808159
:1006A00084608083EEE4F0E08081886080838081D4
:1006B0008061808393B713968C9113978770987F8E
:1006C000892B808315968D919C9116979DBD8CBD2D
:1006D00017968D919C91189799BD88BDE9E5F0E03A
:1006E00080818860808308959093CD008093CC00B2
:1006F00008951F920F920FB60F9211242F933F93DC
:100700004F935F936F937F938F939F93AF93BF9319
:10071000EF93FF93E091CC00F091CD000995FF910C
:10072000EF91BF91AF919F918F917F916F915F9169
:100730004F913F912F910F900FBE0F901F901895E2
:100740001F920F920FB60F9211242F933F934F9346
:100750005F936F937F938F939F93AF93BF93EF9329
:10076000FF93E091CC00F091CD0009950E94F30237
:10077000FF91EF91BF91AF919F918F917F916F9179
:100780005F914F913F912F910F900FBE0F901F904F
:1007900018951F920F920FB60F9211242F933F932B
:1007A0004F935F936F937F938F939F93AF93BF9379
:1007B000EF93FF93E091CC00F091CD000995FF916C
:1007C000EF91BF91AF919F918F917F916F915F91C9
:1007D0004F913F912F910F900FBE0F901F90189542
:1007E00082E08BB988E18AB9E0E4F0E086E88083B2
:1007F000108287E689B90895982FEBE2F0E08081B6
:1008000085FFFDCF9CB90895EBE2F0E0808188235D
:10081000ECF78CB108951F93CF93DF93EC0188819F
:10082000882351F010E00E94FC031F5FFE01E10FDE
:10083000F11D80818823B9F7DF91CF911F91089531
:10084000EF92FF921F93CF93DF937C010E940404E9
:10085000F7018083833259F010E01F5FE701C10F79
:10086000D11D0E94040488838332B9F77E01F70109
:100870001082DF91CF911F91FF90EF900895FB01BF
:100880009F01E8944230C4F04532B4F44A3029F470
:1008900097FB1EF4909581959F4F642F77270E94B8
:1008A0007004805D8A330CF0895D8193CB010097E1
:1008B000A1F716F45DE251931082C9010C94600413
:1008C000DC01FC01672F71917723E1F7329704C0B7
:1008D0007C916D9370836291AE17BF07C8F3089542
:1008E000AA1BBB1B51E107C0AA1FBB1FA617B70756
:1008F00010F0A61BB70B881F991F5A95A9F7809572
:0C0900009095BC01CD010895F894FFCF44
:10090C0020202A2A496E76616C69642A2A00446F79
:10091C006F72206973206E6F7700436C6F73696E12
:10092C00672E2E2E004F70656E696E672E2E2E0070
:10093C002B3A204368616E6765205057002D3A2092
:10094C004F70656E20446F6F7200456E7465722037
:10095C0050617373776F72643A00436F6E6669729D
:0C096C006D2050617373776F72643A0065
:00000001FF
