:100000000C942A000C943C000C943C000C943C0092
:100010000C943C000C943C000C94C8010C94F1012D
:100020000C94A1010C943C000C943C000C943C00FA
:100030000C943C000C943C000C943C000C943C0050
:100040000C943C000C943C000C943C000C943C0040
:100050000C943C0011241FBECFE5D4E0DEBFCDBF21
:1000600010E0A0E6B0E001C01D92A236B107E1F7B2
:100070000E943E000C9467020C9400000E9418023B
:100080000E94C9000E944500FFCF0E942C020E94DE
:100090002C020E942C020895EF92FF920F931F935F
:1000A000DF93CF930F92CDB7DEB77C018B010E9417
:1000B000D3000E94F900883091F5C701880F892F7D
:1000C000881F990B9195282F2E702983822F806A83
:1000D0000E94DE000E94F900883109F58E2D0E94F1
:1000E000DE000E94F9008832D1F40E94D3000E9401
:1000F000F9008031A1F48981816A0E94DE000E94AA
:10010000F900803461F40E94F000F80180830E94BD
:10011000F900883521F40E94DB0081E001C080E015
:100120000F90CF91DF911F910F91FF90EF90089565
:100130001F93CF93DF93EC01162F0E94D3000E94F0
:10014000F900883009F5CE0180709770880F892FEB
:10015000881F990B9195806A0E94DE000E94F90029
:10016000883191F48C2F0E94DE000E94F9008832C1
:1001700059F4812F0E94DE000E94F900883221F498
:100180000E94DB0081E001C080E0DF91CF911F91F0
:1001900008950E94CC00089582E080B911B882B918
:1001A00084E086BF089584EA86BFE6E5F0E08081BA
:1001B0008823ECF7089584E986BF089583B984E81D
:1001C00086BFE6E5F0E080818823ECF7089584ECB3
:1001D00086BFE6E5F0E080818823ECF783B10895DF
:1001E00084E886BFE6E5F0E080818823ECF783B100
:1001F000089581B1887F0895982FE7E3F0E080812A
:1002000081608083808181608083992349F4E8E361
:10021000F0E080818E7F808380818260808308957A
:10022000913041F4E8E3F0E0808181608083808157
:100230008D7F808308951FBC1EBC1BBC1ABCE9E5E2
:10024000F0E080818F7E80830895DC018D919C9108
:1002500011970097C9F4EFE4F0E080818860808313
:1002600093B713968C9113978770987F892B8EBDC7
:1002700015968D919C9116979DBD8CBDE9E5F0E09A
:100280008081846080830895019709F054C012969C
:100290008C911297813439F5EFE4F0E08081886029
:1002A0008083EEE4F0E080818860808380818061DB
:1002B000808393B713968C9113978770987F892BBF
:1002C000808315968D919C9116979DBD8CBD179638
:1002D0008D919C9118979BBD8ABDE9E5F0E08081E6
:1002E000806180830895823431F5EFE4F0E080810D
:1002F00084608083EEE4F0E0808188608083808188
:100300008061808393B713968C9113978770987F41
:10031000892B808315968D919C9116979DBD8CBDE0
:1003200017968D919C91189799BD88BDE9E5F0E0ED
:10033000808188608083089590936100809360003D
:1003400008951F920F920FB60F9211242F933F938F
:100350004F935F936F937F938F939F93AF93BF93CD
:10036000EF93FF93E0916000F09161000995FF9198
:10037000EF91BF91AF919F918F917F916F915F911D
:100380004F913F912F910F900FBE0F901F90189596
:100390001F920F920FB60F9211242F933F934F93FA
:1003A0005F936F937F938F939F93AF93BF93EF93DD
:1003B000FF93E0916000F091610009950E941B019C
:1003C000FF91EF91BF91AF919F918F917F916F912D
:1003D0005F914F913F912F910F900FBE0F901F9003
:1003E00018951F920F920FB60F9211242F933F93DF
:1003F0004F935F936F937F938F939F93AF93BF932D
:10040000EF93FF93E0916000F09161000995FF91F7
:10041000EF91BF91AF919F918F917F916F915F917C
:100420004F913F912F910F900FBE0F901F901895F5
:1004300082E08BB988E18AB9E0E4F0E086E8808365
:10044000108287E689B90895982FEBE2F0E0808169
:1004500085FFFDCF9CB90895EBE2F0E08081882311
:10046000ECF78CB108951F93CF93DF93EC01888153
:10047000882351F010E00E9424021F5FFE01E10F6B
:10048000F11D80818823B9F7DF91CF911F910895E5
:10049000EF92FF921F93CF93DF937C010E942C0277
:1004A000F7018083833259F010E01F5FE701C10F2D
:1004B000D11D0E942C0288838332B9F77E01F70197
:1004C0001082DF91CF911F91FF90EF900895F894E3
:0204D000FFCF5C
:00000001FF
