:100000000C942A000C943C000C943C000C943C0092
:100010000C943C000C943C000C9455040C946A0421
:100020000C9428040C943C000C943C000C943C0070
:100030000C943C000C943C000C943C000C943C0050
:100040000C943C000C943C000C943C000C943C0040
:100050000C943C0011241FBECFE5D4E0DEBFCDBF21
:1000600010E0A0E6B0E001C01D92A837B107E1F7AB
:100070000E9474000C9456050C940000DF93CF93FB
:10008000CDB7DEB727970FB6F894DEBF0FBECDBF52
:100090008B837D836C835F834E838E819F819A8364
:1000A0008983E981FA8181E090E091838083E9810D
:1000B000FA818B818283E981FA8185E090E09483E3
:1000C0008383E981FA8116821582E981FA818C8124
:1000D0009D819087878327960FB6F894DEBF0FBE69
:1000E000CDBFCF91DF910895DF93CF9300D000D0A3
:1000F000CDB7DEB71C820E94CF0081E08B831982CE
:1001000006C08C818F5F8C830E94F1008B838C8171
:10011000882319F48B818230A1F781E08B830E94C0
:10012000D2048A838A818330B9F403C089818F5FC6
:1001300089830E945301882319F489818330B1F7A0
:100140008981833021F3198203C00E94F1008B83DF
:100150008B818230D1F7DBCF8A818430C1F603C036
:1001600089818F5F89830E945301882319F48981D3
:100170008330B1F78981833051F2198283E991E0AC
:100180000E94160486E690E00E9455038FE690E0F8
:100190000E9455030E9493010E943603B8CFDF935B
:1001A000CF93CDB7DEB70E94A1040E94BC0126E622
:1001B00030E081E468EA71E6A9010E943E002FE682
:1001C00030E082E468EA71E6A9010E943E00AFE5F2
:1001D000B0E0EFE5F0E0808180688C93CF91DF9113
:1001E0000895DF93CF9300D000D00F92CDB7DEB744
:1001F00081E00E94BB04CE0102960E940A0581E0C4
:100200000E94BB04CE0104960E940A05CE0102960C
:100210009E012C5F3F4FB9010E944D058983898162
:10022000882351F482E08983CE0102960E942A013C
:1002300081E00E94BB0405C081E0898380E00E94C8
:10024000BB0489810F900F900F900F900F90CF916A
:10025000DF910895DF93CF9300D000D0CDB7DEB704
:100260009C838B831A82198212C02B813C818981E5
:100270009A81F901E80FF91F208189819A81622F03
:100280000E94C50189819A8101969A838983EB81B5
:10029000FC818081882349F70F900F900F900F9079
:1002A000CF91DF910895DF93CF93CDB7DEB7279736
:1002B0000FB6F894DEBF0FBECDBFCE0103960E94ED
:1002C0000A051A8219820DC089819A819E012B5FCD
:1002D0003F4FB9010E94060289819A8101969A8353
:1002E000898389819A81009779F3CE0103969E01D3
:1002F0002B5F3F4FB9010E944D05009731F481E01B
:100300000E94BB0481E08F8304C080E00E94BB0494
:100310001F828F8127960FB6F894DEBF0FBECDBF28
:10032000CF91DF910895DF93CF93CDB7DEB7809162
:100330006200882379F4809162008F5F809362006D
:1003400080E00E94E302809160008823E1F3109234
:1003500060000FC080916200813059F410926200F9
:1003600081E00E94E302809161008823E1F3109212
:100370006100CF91DF910895DF93CF93CDB7DEB7C2
:100380000E946602CF91DF910895DF93CF9300D052
:1003900000D0CDB7DEB79A8389836B830E947C023D
:1003A0000E94D402883011F01C8228C089819A8171
:1003B00080709770880F892F881F990B9195806A9C
:1003C0000E9497020E94D402883111F01C8216C04C
:1003D00089810E9497020E94D402883211F01C8207
:1003E0000DC08B810E9497020E94D402883211F0C6
:1003F0001C8204C00E948C0281E08C838C810F904F
:100400000F900F900F90CF91DF910895DF93CF93CE
:1004100000D000D00F92CDB7DEB79A8389837C835A
:100420006B830E947C020E94D402883011F01D82EE
:1004300044C089819A8180709770880F892F881FA6
:10044000990B9195806A0E9497020E94D40288318C
:1004500011F01D8232C089810E9497020E94D4024D
:10046000883211F01D8229C00E947C020E94D402B1
:10047000803111F01D8221C089819A81807097702E
:10048000880F892F881F990B9195816A0E94970286
:100490000E94D402803411F01D820FC00E94C1025C
:1004A000EB81FC8180830E94D402883511F01D828B
:1004B00004C00E948C0281E08D838D810F900F908B
:1004C0000F900F900F90CF91DF910895DF93CF930E
:1004D000CDB7DEB7E0E2F0E082E08083E1E2F0E079
:1004E0001082E2E2F0E082E08083E6E5F0E084E082
:1004F0008083CF91DF910895DF93CF93CDB7DEB79F
:10050000E6E5F0E084EA8083E6E5F0E08081882398
:10051000DCF7CF91DF910895DF93CF93CDB7DEB7AE
:10052000E6E5F0E084E98083CF91DF910895DF93E1
:10053000CF930F92CDB7DEB78983E3E2F0E08981F4
:100540008083E6E5F0E084E88083E6E5F0E0808102
:100550008823DCF70F90CF91DF910895DF93CF933D
:10056000CDB7DEB7E6E5F0E084EC8083E6E5F0E0C9
:1005700080818823DCF7E3E2F0E08081CF91DF9196
:100580000895DF93CF93CDB7DEB7E6E5F0E084E8DA
:100590008083E6E5F0E080818823DCF7E3E2F0E0A9
:1005A0008081CF91DF910895DF93CF930F92CDB7E4
:1005B000DEB7E1E2F0E08081887F898389810F9056
:1005C000CF91DF910895DF93CF930F92CDB7DEB730
:1005D0008983A7E3B0E0E7E3F0E0808181608C935A
:1005E000A7E3B0E0E7E3F0E0808181608C9389814C
:1005F000882379F4A8E3B0E0E8E3F0E080818E7F1F
:100600008C93A8E3B0E0E8E3F0E0808182608C9313
:1006100011C08981813071F4A8E3B0E0E8E3F0E033
:10062000808181608C93A8E3B0E0E8E3F0E0808112
:100630008D7F8C930F90CF91DF910895DF93CF93AF
:10064000CDB7DEB7EFE4F0E01082EEE4F0E0108228
:10065000EAE4F0E011821082A9E5B0E0E9E5F0E01B
:1006600080818F7E8C93CF91DF910895DF93CF931C
:10067000CDB7DEB7EFE4F0E01082EEE4F0E01082F8
:10068000EAE4F0E011821082A9E5B0E0E9E5F0E0EB
:1006900080818F7E8C93A9E5B0E0E9E5F0E0808170
:1006A0008B7F8C93CF91DF910895DF93CF9300D010
:1006B000CDB7DEB79A838983E981FA818081918100
:1006C000009729F5AFE4B0E0EFE4F0E080818860C6
:1006D0008C93AEE4B0E0E3E5F0E08081282F287F42
:1006E000E981FA81838194818770822B8C93ACE4B9
:1006F000B0E0E981FA818581968111969C938E9371
:10070000A9E5B0E0E9E5F0E0808184608C93E981BF
:10071000FA81808191818130910509F082C0E9815F
:10072000FA8182818134E1F5AFE4B0E0EFE4F0E0FA
:10073000808188608C93AEE4B0E0EEE4F0E08081EC
:1007400088608C93AEE4B0E0EEE4F0E080818061FC
:100750008C93AEE4B0E0EEE4F0E08081282F287FB7
:10076000E981FA81838194818770822B8C93ACE438
:10077000B0E0E981FA818581968111969C938E93F0
:10078000AAE4B0E0E981FA818781908511969C9373
:100790008E93A9E5B0E0E9E5F0E0808180618C937B
:1007A000E981FA8182818234E1F5AFE4B0E0EFE4DF
:1007B000F0E0808184608C93AEE4B0E0EEE4F0E0A1
:1007C000808188608C93AEE4B0E0EEE4F0E080815C
:1007D00080618C93AEE4B0E0EEE4F0E08081282FFD
:1007E000287FE981FA81838194818770822B8C93A1
:1007F000ACE4B0E0E981FA818581968111969C9301
:100800008E93A8E4B0E0E981FA8187819085119602
:100810009C938E93A9E5B0E0E9E5F0E080818860E3
:100820008C930F900F90CF91DF910895DF93CF932A
:1008300000D0CDB7DEB79A83898389819A8190935E
:100840006500809364000F900F90CF91DF91089521
:100850001F920F920FB60F9211242F933F934F9335
:100860005F936F937F938F939F93AF93BF93EF9318
:10087000FF93DF93CF93CDB7DEB7E0916400F091A3
:1008800065000995CF91DF91FF91EF91BF91AF91F5
:100890009F918F917F916F915F914F913F912F9198
:1008A0000F900FBE0F901F9018951F920F920FB6CA
:1008B0000F9211248F93DF93CF93CDB7DEB781E0F2
:1008C00080936100CF91DF918F910F900FBE0F90B9
:1008D0001F9018951F920F920FB60F9211242F930D
:1008E0003F934F935F936F937F938F939F93AF93B8
:1008F000BF93EF93FF93DF93CF93CDB7DEB7AFE511
:10090000B0E0EFE5F0E0808180688C9381E0809337
:100910006000E0916400F09165000995CF91DF914E
:10092000FF91EF91BF91AF919F918F917F916F91C7
:100930005F914F913F912F910F900FBE0F901F909D
:100940001895DF93CF93CDB7DEB7EBE2F0E082E00E
:100950008083EAE2F0E088E18083E0E4F0E086E88A
:100960008083E0E4F0E01082E9E2F0E087E6808353
:10097000CF91DF910895DF93CF930F92CDB7DEB77C
:100980008983EBE2F0E08081882F90E080729070A4
:100990000097B9F3ECE2F0E0898180830F90CF916A
:1009A000DF910895DF93CF93CDB7DEB7EBE2F0E0B0
:1009B00080818823DCF7ECE2F0E08081CF91DF9149
:1009C0000895DF93CF9300D00F92CDB7DEB79B830E
:1009D0008A8319820EC08981282F30E08A819B8109
:1009E000FC01E20FF31F80810E94BB0489818F5FAD
:1009F00089838981282F30E08A819B81FC01E20F65
:100A0000F31F8081882339F70F900F900F90CF91BB
:100A1000DF9108950F931F93DF93CF9300D00F9230
:100A2000CDB7DEB79B838A8319828981282F30E076
:100A30008A819B818C01020F131F0E94D204F8014E
:100A400080830FC089818F5F89838981282F30E05F
:100A50008A819B818C01020F131F0E94D204F8012E
:100A600080838981282F30E08A819B81FC01E20FFD
:100A7000F31F8081833231F78981282F30E08A810A
:100A80009B81FC01E20FF31F10820F900F900F90DB
:100A9000CF91DF911F910F910895FB01DC018D91A2
:100AA000019080190110D9F3990B0895F894FFCFA4
:00000001FF
