:100000000C942A000C9447000C9447000C94470071
:100010000C9447000C9447000C945E0A0C947E0AE2
:100020000C94310A0C9447000C9447000C94470040
:100030000C9447000C9447000C9447000C94470024
:100040000C9447000C9447000C9447000C94470014
:100050000C94470011241FBECFE5D4E0DEBFCDBF16
:1000600010E0A0E6B0E0E4E8F2E202C005900D92F4
:10007000AC36B107D9F710E0ACE6B0E001C01D9294
:10008000A338B107E1F70E947F000C9440110C9453
:100090000000DF93CF93CDB7DEB727970FB6F89464
:1000A000DEBF0FBECDBF8B837D836C835F834E83AA
:1000B0008E819F819A838983E981FA8181E090E032
:1000C00091838083E981FA818B818283E981FA813E
:1000D00085E090E094838383E981FA81168215821A
:1000E000E981FA818C819D819087878327960FB65D
:1000F000F894DEBF0FBECDBFCF91DF910895DF939F
:10010000CF9300D00F92CDB7DEB70E94EA0081E016
:100110008B831A82198203C00E940E018A838B810D
:10012000813019F48A818823B9F30E94EC028B8311
:100130008B81833011F51A8209C00E94F2018A83F3
:100140008A81882319F489818F5F89838A81882332
:1001500019F48981833089F78981833051F01982BC
:100160001A8203C00E940E018A838A818823D1F3F8
:10017000D6CF8981833099F6FFCF8B81843079F691
:100180001A8209C00E94F2018A838A81882319F4A5
:1001900089818F5F89838A81882319F489818330DB
:1001A00089F78981833009F4BACF198282ED92E010
:1001B0000E941F0A81E790E00E945E098AE790E0B2
:1001C0000E945E0980E00E94BD020E943B090E94DD
:1001D000E302A5CFDF93CF93CDB7DEB70E94B50A78
:1001E0000E941C040E94F50221E730E081E468EAE5
:1001F00071E6A9010E9449002AE730E082E468EA3A
:1002000071E6A9010E944900AFE5B0E0EFE5F0E03A
:10021000808180688C93CF91DF910895DF93CF9395
:1002200000D000D000D0CDB7DEB70E94E60A813002
:10023000E1F7CE0103960E941E0B0E94E60A813070
:10024000E1F7CE0105960E941E0BCE0103969E019A
:100250002B5F3F4FB9010E94F2108A838A81882365
:1002600071F482E08A83CE0103960E9451010E94BC
:10027000E60A8130E1F782E00E94CF0A08C01A82C4
:100280000E94E60A8130E1F780E00E94CF0A8A816D
:1002900026960FB6F894DEBF0FBECDBFCF91DF918B
:1002A0000895DF93CF93CDB7DEB762970FB6F8947A
:1002B000DEBF0FBECDBF9A8B898B188A1F8684C084
:1002C00029893A898F859889F901E80FF91F2081DA
:1002D0008F859889622F0E94FE0280E090E0A0E264
:1002E000B1E48B879C87AD87BE876B857C858D85C8
:1002F0009E8520E030E04AEF54E40E94370DDC0197
:10030000CB018F839887A987BA876F817885898584
:100310009A8520E030E040E85FE30E94910E882358
:100320002CF481E090E09E838D833FC06F817885BF
:1003300089859A8520E03FEF4FE757E40E94310E10
:1003400018164CF56B857C858D859E8520E030E008
:1003500040E251E40E94370DDC01CB01BC01CD012C
:100360000E94610BDC01CB019E838D830FC088EC62
:1003700090E09C838B838B819C810197F1F79C8318
:100380008B838D819E8101979E838D838D819E813C
:10039000009769F714C06F81788589859A850E94D6
:1003A000610BDC01CB019E838D838D819E819A83BD
:1003B000898389819A810197F1F79A8389838F854F
:1003C00098890196988B8F878F859889009709F473
:1003D00077CF62960FB6F894DEBF0FBECDBFCF9138
:1003E000DF910895DF93CF93CDB7DEB764970FB653
:1003F000F894DEBF0FBECDBF0E94E60A8130E1F760
:10040000CE0140960E941E0B1F8684C08F85482F08
:1004100050E08F85882F90E09E012E5E3F4F280F81
:10042000391FCA01B9010E943F0380E090E0A0EAB1
:10043000B0E48B879C87AD87BE876B857C858D8577
:100440009E8520E030E04AEF54E40E94370DDC0145
:10045000CB018F839887A987BA876F817885898533
:100460009A8520E030E040E85FE30E94910E882307
:100470002CF481E090E09E838D833FC06F8178856E
:1004800089859A8520E03FEF4FE757E40E94310EBF
:1004900018164CF56B857C858D859E8520E030E0B7
:1004A00040E251E40E94370DDC01CB01BC01CD01DB
:1004B0000E94610BDC01CB019E838D830FC088EC11
:1004C00090E09C838B838B819C810197F1F79C83C7
:1004D0008B838D819E8101979E838D838D819E81EB
:1004E000009769F714C06F81788589859A850E9485
:1004F000610BDC01CB019E838D838D819E819A836C
:10050000898389819A810197F1F79A8389838F85FD
:100510008F5F8F878F85882309F478CF8F85282F69
:1005200030E0CE014296FC01E20FF31F1082CE01B3
:1005300040969E012E5E3F4FB9010E94F210009737
:1005400051F40E94E60A8130E1F782E00E94CF0A6E
:1005500082E08C8B08C00E94E60A8130E1F780E0DF
:100560000E94CF0A1C8A8C8964960FB6F894DEBF6D
:100570000FBECDBFCF91DF910895DF93CF930F9240
:10058000CDB7DEB7898389810E94D30880916C0042
:100590008823E1F380E690E00E942F080F90CF912E
:1005A000DF910895DF93CF930F92CDB7DEB78983A4
:1005B00089810E94D30880916D008823E1F30F9018
:1005C000CF91DF910895DF93CF93CDB7DEB70E942F
:1005D0000E09CF91DF910895DF93CF93CDB7DEB7AA
:1005E0000E94E60ACF91DF910895DF93CF93CDB7B4
:1005F000DEB70E949F03CF91DF910895DF93CF93E1
:1006000000D000D0CDB7DEB79A8389836B830E9478
:10061000B5030E940D04883011F01C8228C0898126
:100620009A8180709770880F892F881F990B9195F8
:10063000806A0E94D0030E940D04883111F01C8250
:1006400016C089810E94D0030E940D04883211F0E7
:100650001C820DC08B810E94D0030E940D04883241
:1006600011F01C8204C00E94C50381E08C838C8140
:100670000F900F900F900F90CF91DF910895DF931F
:10068000CF9300D000D00F92CDB7DEB79A83898385
:100690007C836B830E94B5030E940D04883011F0A7
:1006A0001D8244C089819A8180709770880F892F3C
:1006B000881F990B9195806A0E94D0030E940D04B7
:1006C000883111F01D8232C089810E94D0030E94BE
:1006D0000D04883211F01D8229C00E94B5030E94CA
:1006E0000D04803111F01D8221C089819A818070B2
:1006F0009770880F892F881F990B9195816A0E94A6
:10070000D0030E940D04803411F01D820FC00E949E
:10071000FA03EB81FC8180830E940D04883511F07F
:100720001D8204C00E94C50381E08D838D810F90DE
:100730000F900F900F900F90CF91DF910895DF935E
:10074000CF93CDB7DEB7E0E2F0E082E08083E1E274
:10075000F0E01082E2E2F0E082E08083E6E5F0E0A3
:1007600084E08083CF91DF910895DF93CF93CDB75D
:10077000DEB7E6E5F0E084EA8083E6E5F0E080813C
:100780008823DCF7CF91DF910895DF93CF93CDB726
:10079000DEB7E6E5F0E084E98083CF91DF9108954C
:1007A000DF93CF930F92CDB7DEB78983E3E2F0E01A
:1007B00089818083E6E5F0E084E88083E6E5F0E087
:1007C00080818823DCF70F90CF91DF910895DF932C
:1007D000CF93CDB7DEB7E6E5F0E084EC8083E6E5C5
:1007E000F0E080818823DCF7E3E2F0E08081CF91C4
:1007F000DF910895DF93CF93CDB7DEB7E6E5F0E064
:1008000084E88083E6E5F0E080818823DCF7E3E29A
:10081000F0E08081CF91DF910895DF93CF930F9225
:10082000CDB7DEB7E1E2F0E08081887F89838981FE
:100830000F90CF91DF910895DF93CF93CDB7DEB7BF
:10084000A1E3B0E0E1E3F0E08081806E8C93EAE325
:10085000F0E08FEF808388E30E9437048CE00E94F1
:10086000370481E00E943704CF91DF910895DF9330
:10087000CF93CDB7DEB7E9970FB6F894DEBF0FBEC2
:10088000CDBF89AFA2E3B0E0E2E3F0E080818F77F3
:100890008C93A2E3B0E0E2E3F0E080818F7B8C9365
:1008A00080E090E0A0E8BFE38DAB9EABAFABB8AF0C
:1008B0006DA97EA98FA998AD20E030E04AEF54E4FD
:1008C0000E94370DDC01CB0189AB9AABABABBCAB63
:1008D00069A97AA98BA99CA920E030E040E85FE3F0
:1008E0000E94910E88232CF481E090E098AB8FA7B2
:1008F0003FC069A97AA98BA99CA920E03FEF4FE7E7
:1009000057E40E94310E18164CF56DA97EA98FA9E7
:1009100098AD20E030E040E251E40E94370DDC0168
:10092000CB01BC01CD010E94610BDC01CB0198AB76
:100930008FA70FC088EC90E09EA78DA78DA59EA5E0
:100940000197F1F79EA78DA78FA598A9019798AB5E
:100950008FA78FA598A9009769F714C069A97AA9EC
:100960008BA99CA90E94610BDC01CB0198AB8FA7DE
:100970008FA598A99CA78BA78BA59CA50197F1F79C
:100980009CA78BA7A2E3B0E0E2E3F0E08081806265
:100990008C9380E090E0A0E8BFE38FA398A7A9A77D
:1009A000BAA76FA178A589A59AA520E030E04AEF03
:1009B00054E40E94370DDC01CB018BA39CA3ADA3B3
:1009C000BEA36BA17CA18DA19EA120E030E040E8F8
:1009D0005FE30E94910E88232CF481E090E09AA3BB
:1009E00089A33FC06BA17CA18DA19EA120E03FEF18
:1009F0004FE757E40E94310E18164CF56FA178A509
:100A000089A59AA520E030E040E251E40E94370D2C
:100A1000DC01CB01BC01CD010E94610BDC01CB01EB
:100A20009AA389A30FC088EC90E098A38F8F8F8D35
:100A300098A10197F1F798A38F8F89A19AA10197A7
:100A40009AA389A389A19AA1009769F714C06BA101
:100A50007CA18DA19EA10E94610BDC01CB019AA318
:100A600089A389A19AA19E8F8D8F8D8D9E8D0197CF
:100A7000F1F79E8F8D8FEBE3F0E089AD808380E00E
:100A800090E0A0E8BFE3898F9A8FAB8FBC8F698D10
:100A90007A8D8B8D9C8D20E030E04AEF54E40E94EB
:100AA000370DDC01CB018D8B9E8BAF8BB88F6D89A1
:100AB0007E898F89988D20E030E040E85FE30E94D6
:100AC000910E88232CF481E090E09C8B8B8B3FC0AF
:100AD0006D897E898F89988D20E03FEF4FE757E43D
:100AE0000E94310E18164CF5698D7A8D8B8D9C8D78
:100AF00020E030E040E251E40E94370DDC01CB0100
:100B0000BC01CD010E94610BDC01CB019C8B8B8B66
:100B10000FC088EC90E09A8B898B89899A8901971C
:100B2000F1F79A8B898B8B899C8901979C8B8B8B96
:100B30008B899C89009769F714C06D897E898F899C
:100B4000988D0E94610BDC01CB019C8B8B8B8B8978
:100B50009C89988B8F878F8598890197F1F7988B5F
:100B60008F87A2E3B0E0E2E3F0E080818F7D8C9399
:100B700080E090E0A0E8BFE38B879C87AD87BE87CD
:100B80006B857C858D859E8520E030E04AEF54E4BE
:100B90000E94370DDC01CB018F839887A987BA8724
:100BA0006F81788589859A8520E030E040E85FE3B1
:100BB0000E94910E88232CF481E090E09E838D8327
:100BC0003FC06F81788589859A8520E03FEF4FE7A8
:100BD00057E40E94310E18164CF56B857C858D8587
:100BE0009E8520E030E040E251E40E94370DDC01B8
:100BF000CB01BC01CD010E94610BDC01CB019E83C6
:100C00008D830FC088EC90E09C838B838B819C81CB
:100C10000197F1F79C838B838D819E8101979E8341
:100C20008D838D819E81009769F714C06F817885CF
:100C300089859A850E94610BDC01CB019E838D839F
:100C40008D819E819A83898389819A810197F1F7A9
:100C50009A838983E9960FB6F894DEBF0FBECDBFA5
:100C6000CF91DF910895DF93CF93CDB7DEB7E997AA
:100C70000FB6F894DEBF0FBECDBF89AFA2E3B0E0E0
:100C8000E2E3F0E0808180688C93A2E3B0E0E2E3ED
:100C9000F0E080818F7B8C9380E090E0A0E8BFE360
:100CA0008DAB9EABAFABB8AF6DA97EA98FA998AD48
:100CB00020E030E04AEF54E40E94370DDC01CB0124
:100CC00089AB9AABABABBCAB69A97AA98BA99CA940
:100CD00020E030E040E85FE30E94910E88232CF48E
:100CE00081E090E098AB8FA73FC069A97AA98BA952
:100CF0009CA920E03FEF4FE757E40E94310E181601
:100D00004CF56DA97EA98FA998AD20E030E040E2B6
:100D100051E40E94370DDC01CB01BC01CD010E94E2
:100D2000610BDC01CB0198AB8FA70FC088EC90E082
:100D30009EA78DA78DA59EA50197F1F79EA78DA7CC
:100D40008FA598A9019798AB8FA78FA598A9009711
:100D500069F714C069A97AA98BA99CA90E94610BA3
:100D6000DC01CB0198AB8FA78FA598A99CA78BA777
:100D70008BA59CA50197F1F79CA78BA7A2E3B0E0F8
:100D8000E2E3F0E0808180628C9380E090E0A0E874
:100D9000BFE38FA398A7A9A7BAA76FA178A589A534
:100DA0009AA520E030E04AEF54E40E94370DDC01C0
:100DB000CB018BA39CA3ADA3BEA36BA17CA18DA1F2
:100DC0009EA120E030E040E85FE30E94910E88237E
:100DD0002CF481E090E09AA389A33FC06BA17CA191
:100DE0008DA19EA120E03FEF4FE757E40E94310E16
:100DF00018164CF56FA178A589A59AA520E030E0DA
:100E000040E251E40E94370DDC01CB01BC01CD0171
:100E10000E94610BDC01CB019AA389A30FC088EC6F
:100E200090E098A38F8F8F8D98A10197F1F798A3E9
:100E30008F8F89A19AA101979AA389A389A19AA1C9
:100E4000009769F714C06BA17CA18DA19EA10E949F
:100E5000610BDC01CB019AA389A389A19AA19E8F82
:100E60008D8F8D8D9E8D0197F1F79E8F8D8FEBE38A
:100E7000F0E089AD808380E090E0A0E8BFE3898F57
:100E80009A8FAB8FBC8F698D7A8D8B8D9C8D20E076
:100E900030E04AEF54E40E94370DDC01CB018D8B2A
:100EA0009E8BAF8BB88F6D897E898F89988D20E05E
:100EB00030E040E85FE30E94910E88232CF481E04B
:100EC00090E09C8B8B8B3FC06D897E898F89988D3C
:100ED00020E03FEF4FE757E40E94310E18164CF523
:100EE000698D7A8D8B8D9C8D20E030E040E251E45D
:100EF0000E94370DDC01CB01BC01CD010E94610BCA
:100F0000DC01CB019C8B8B8B0FC088EC90E09A8B23
:100F1000898B89899A890197F1F79A8B898B8B89BB
:100F20009C8901979C8B8B8B8B899C89009769F797
:100F300014C06D897E898F89988D0E94610BDC01B8
:100F4000CB019C8B8B8B8B899C89988B8F878F8512
:100F500098890197F1F7988B8F87A2E3B0E0E2E3DD
:100F6000F0E080818F7D8C9380E090E0A0E8BFE38B
:100F70008B879C87AD87BE876B857C858D859E859D
:100F800020E030E04AEF54E40E94370DDC01CB0151
:100F90008F839887A987BA876F81788589859A8595
:100FA00020E030E040E85FE30E94910E88232CF4BB
:100FB00081E090E09E838D833FC06F817885898535
:100FC0009A8520E03FEF4FE757E40E94310E181654
:100FD0004CF56B857C858D859E8520E030E040E278
:100FE00051E40E94370DDC01CB01BC01CD010E9410
:100FF000610BDC01CB019E838D830FC088EC90E0F8
:101000009C838B838B819C810197F1F79C838B83DD
:101010008D819E8101979E838D838D819E81009716
:1010200069F714C06F81788589859A850E94610B64
:10103000DC01CB019E838D838D819E819A83898380
:1010400089819A810197F1F79A838983E9960FB68E
:10105000F894DEBF0FBECDBFCF91DF910895DF932F
:10106000CF9300D0CDB7DEB79A8389830AC0E981D8
:10107000FA8180810E94330689819A8101969A8340
:101080008983E981FA818081882389F70F900F9005
:10109000CF91DF910895DF93CF9300D000D00F92CE
:1010A000CDB7DEB78A836B838A81282F30E03D83FA
:1010B0002C838C819D8181309105C1F02C813D81F3
:1010C000223031052CF48C819D81009761F019C08C
:1010D0002C813D812230310569F08C819D818330E6
:1010E000910561F00EC08B8189830BC08B81805C80
:1010F000898307C08B81805F898303C08B81805B7C
:101100008983898180680E9437040F900F900F9027
:101110000F900F90CF91DF910895DF93CF9300D080
:1011200000D0CDB7DEB789836A835C834B83898126
:101130006A810E944B088B819C810E942F080F902E
:101140000F900F900F90CF91DF910895DF93CF9381
:10115000CDB7DEB762970FB6F894DEBF0FBECDBF36
:101160009A8B898B89899A899E012F5F3F4FB9019C
:101170004AE050E00E94FB10CE0101960E942F0829
:1011800062960FB6F894DEBF0FBECDBFCF91DF9150
:101190000895DF93CF93CDB7DEB781E00E94370487
:1011A000CF91DF910895DF93CF930F92CDB7DEB744
:1011B0008983A7E3B0E0E7E3F0E0808181608C936E
:1011C000A7E3B0E0E7E3F0E0808181608C93898160
:1011D000882379F4A8E3B0E0E8E3F0E080818E7F33
:1011E0008C93A8E3B0E0E8E3F0E0808182608C9328
:1011F00011C08981813071F4A8E3B0E0E8E3F0E048
:10120000808181608C93A8E3B0E0E8E3F0E0808126
:101210008D7F8C930F90CF91DF910895DF93CF93C3
:10122000CDB7DEB7A8E3B0E0E8E3F0E080818E7FE1
:101230008C93A8E3B0E0E8E3F0E080818D7F8C93AD
:10124000CF91DF910895DF93CF93CDB7DEB7EFE471
:10125000F0E01082EEE4F0E01082EAE4F0E01182C7
:101260001082A9E5B0E0E9E5F0E080818F7E8C9303
:10127000CF91DF910895DF93CF93CDB7DEB7109272
:101280006C0010926D00EFE4F0E01082EEE4F0E00C
:101290001082EAE4F0E011821082A9E5B0E0E9E50D
:1012A000F0E080818F7E8C93A9E5B0E0E9E5F0E085
:1012B00080818B7F8C93CF91DF910895DF93CF93C3
:1012C00000D0CDB7DEB79A838983E981FA81808126
:1012D0009181009729F5AFE4B0E0EFE4F0E0808180
:1012E00088608C93AEE4B0E0E3E5F0E08081282FE5
:1012F000287FE981FA81838194818770822B8C9386
:10130000ACE4B0E0E981FA818581968111969C93E5
:101310008E93A9E5B0E0E9E5F0E0808184608C93EC
:10132000E981FA81808191818130910509F082C043
:10133000E981FA8182818134E1F5AFE4B0E0EFE444
:10134000F0E0808188608C93AEE4B0E0EEE4F0E001
:10135000808188608C93AEE4B0E0EEE4F0E08081C0
:1013600080618C93AEE4B0E0EEE4F0E08081282F61
:10137000287FE981FA81838194818770822B8C9305
:10138000ACE4B0E0E981FA818581968111969C9365
:101390008E93AAE4B0E0E981FA8187819085119665
:1013A0009C938E93A9E5B0E0E9E5F0E0808180614F
:1013B0008C93E981FA8182818234E1F5AFE4B0E077
:1013C000EFE4F0E0808184608C93AEE4B0E0EEE482
:1013D000F0E0808188608C93AEE4B0E0EEE4F0E071
:1013E000808180618C93AEE4B0E0EEE4F0E0808137
:1013F000282F287FE981FA81838194818770822B4D
:101400008C93ACE4B0E0E981FA81858196811196F4
:101410009C938E93A8E4B0E0E981FA81878190855E
:1014200011969C938E93A9E5B0E0E9E5F0E0808108
:1014300088608C930F900F90CF91DF910895DF9388
:10144000CF9300D0CDB7DEB79A83898389819A8103
:101450009093700080936F000F900F90CF91DF9169
:1014600008951F920F920FB60F9211242F933F935E
:101470004F935F936F937F938F939F93AF93BF939C
:10148000EF93FF93DF93CF93CDB7DEB7E0916F007B
:10149000F09170000995CF91DF91FF91EF91BF918D
:1014A000AF919F918F917F916F915F914F913F91FC
:1014B0002F910F900FBE0F901F9018951F920F92B3
:1014C0000FB60F9211248F93DF93CF93CDB7DEB772
:1014D00080916E008F5F80936E0080916E008230ED
:1014E00029F410926E0081E080936D00CF91DF911E
:1014F0008F910F900FBE0F901F9018951F920F9213
:101500000FB60F9211242F933F934F935F936F93D6
:101510007F938F939F93AF93BF93EF93FF93DF934B
:10152000CF93CDB7DEB7AFE5B0E0EFE5F0E0808177
:1015300080688C9381E080936C00E0916F00F09163
:1015400070000995CF91DF91FF91EF91BF91AF911D
:101550009F918F917F916F915F914F913F912F91CB
:101560000F900FBE0F901F901895DF93CF93CDB7BC
:10157000DEB7EBE2F0E082E08083EAE2F0E088E1CF
:101580008083E0E4F0E086E88083E0E4F0E010822D
:10159000E9E2F0E087E68083CF91DF910895DF9361
:1015A000CF930F92CDB7DEB78983EBE2F0E0808175
:1015B000882F90E0807290700097B9F3ECE2F0E031
:1015C000898180830F90CF91DF910895DF93CF932E
:1015D000CDB7DEB7EBE2F0E080818823DCF7ECE208
:1015E000F0E08081CF91DF910895DF93CF9300D019
:1015F0000F92CDB7DEB79B838A8319820EC0898193
:10160000282F30E08A819B81FC01E20FF31F80814B
:101610000E94CF0A89818F5F89838981282F30E0DA
:101620008A819B81FC01E20FF31F8081882339F7B7
:101630000F900F900F90CF91DF9108950F931F930C
:10164000DF93CF9300D00F92CDB7DEB79B838A8311
:1016500019828981282F30E08A819B818C01020FB9
:10166000131F0E94E60AF80180830FC089818F5FF3
:1016700089838981282F30E08A819B818C01020F28
:10168000131F0E94E60AF80180838981282F30E029
:101690008A819B81FC01E20FF31F8081833231F745
:1016A0008981282F30E08A819B81FC01E20FF31FA2
:1016B00010820F900F900F90CF91DF911F910F919B
:1016C0000895EF92FF920F931F937B018C0120E00E
:1016D00030E040E05FE40E94610E88238CF0C80196
:1016E000B70120E030E040E05FE40E94D90C0E94A6
:1016F000C10E9B01AC01205030404040504806C014
:10170000C801B7010E94C10E9B01AC01B901CA0119
:101710001F910F91FF90EF900895A0E0B0E0E3E9F2
:10172000FBE00C94BB10DC012B01FA019C91923080
:1017300008F439C1EB018881823008F433C1943058
:1017400069F4843009F02FC111969C911197898119
:10175000981709F428C1A4E6B0E025C1843009F443
:1017600021C18230A9F4923009F01DC19A01AD0166
:1017700088E0EA010990AE01E90109929E018150D9
:10178000C1F7E201898111969C918923818308C167
:10179000923009F407C112962D903C901397EB01FB
:1017A0008A819B811496AD90BD90CD90DC90179767
:1017B000EC80FD800E811F819101281B390BB9013E
:1017C00037FF04C066277727621B730B60327105F1
:1017D0000CF061C0121613066CF537014801062E95
:1017E00004C096948794779467940A94D2F721E082
:1017F00030E040E050E004C0220F331F441F551F6B
:101800006A95D2F721503040404050402E213F2170
:1018100040235123211531054105510521F021E0D7
:1018200030E040E050E079018A01E628F7280829F5
:1018300019293CC0232BD1F1260E371E3501460154
:10184000062E04C096948794779467940A94D2F7EE
:1018500021E030E040E050E004C0220F331F441F7D
:10186000551F6A95D2F721503040404050402A2100
:101870003B214C215D21211531054105510521F008
:1018800021E030E040E050E059016A01A628B72885
:10189000C828D9280BC0821593052CF01C01AA2456
:1018A000BB24650103C0EE24FF24870111969C919F
:1018B000D20111968C91981709F445C0992339F0FB
:1018C000A80197012A193B094C095D0906C0A60128
:1018D00095012E193F09400B510B57FD08C011828D
:1018E0003382228224833583468357831DC081E05F
:1018F00081833382228288279927DC01821B930B04
:10190000A40BB50B84839583A683B7830DC0220FE8
:10191000331F441F551F2483358346835783828199
:1019200093810197938382832481358146815781F6
:10193000DA01C9010197A109B1098F5F9F4FAF4F2C
:10194000BF4328F30BC0918333822282EA0CFB1C35
:101950000C1D1D1DE482F5820683178383E08083BE
:10196000248135814681578157FF1AC0C901AA27B2
:1019700097FDA095BA2F81709070A070B0705695A9
:10198000479537952795822B932BA42BB52B8483D2
:101990009583A683B7838281938101969383828303
:1019A000DF0101C0D201CD01CDB7DEB7E2E10C9479
:1019B000D710A0E2B0E0EFEDFCE00C94C710698313
:1019C0007A838B839C832D833E834F835887E9E002
:1019D000EE2EF12CEC0EFD1ECE010196B7010E94F9
:1019E000EA0F8E010F5E1F4FCE010596B8010E94CF
:1019F000EA0F8A8991E089278A8BC701B801AE0175
:101A0000475E5F4F0E948D0B0E94150FA096E6E087
:101A10000C94E310A0E2B0E0E0E1FDE00C94C7100C
:101A200069837A838B839C832D833E834F8358877E
:101A3000F9E0EF2EF12CEC0EFD1ECE010196B70160
:101A40000E94EA0F8E010F5E1F4FCE010596B8016E
:101A50000E94EA0FC701B801AE01475E5F4F0E94C6
:101A60008D0B0E94150FA096E6E00C94E310A0E207
:101A7000B0E0EDE3FDE00C94BB1069837A838B83C7
:101A80009C832D833E834F835887CE010196BE01F0
:101A9000675F7F4F0E94EA0FCE010596BE016F5E21
:101AA0007F4F0E94EA0F9985923088F089898230B1
:101AB000C8F0943019F4823051F404C0843029F411
:101AC000923081F484E690E0C6C0923049F420E080
:101AD0009A858A89981321E02A87CE010996BBC08E
:101AE000823049F420E09A858A89981321E02A8B74
:101AF000CE014196B0C02D843E844F8458886D88B5
:101B00007E888F88988CEE24FF248701AA24BB242A
:101B1000650140E050E060E070E0E0E0F0E0C1012D
:101B200081709070892BE9F0E60CF71C081D191DD7
:101B30009A01AB012A0D3B1D4C1D5D1D80E090E01C
:101B4000A0E0B0E0E614F7040805190520F481E0F0
:101B500090E0A0E0B0E0BA01A901480F591F6A1F48
:101B60007B1FAA0CBB1CCC1CDD1C97FE08C081E0AF
:101B700090E0A0E0B0E0A82AB92ACA2ADB2A319670
:101B8000E032F10549F0660C771C881C991C5694CC
:101B9000479437942794C3CFFA85EA892B893C89E7
:101BA0008B859C85280F391F2E5F3F4F17C0CA01B8
:101BB00081709070892B61F016950795F794E794E2
:101BC00080E090E0A0E0B0E8E82AF92A0A2B1B2B7D
:101BD00076956795579547952F5F3F4F77FDE7CFF0
:101BE0000CC0440F551F661F771F17FD4160EE0C98
:101BF000FF1C001F111F21503040403090E059075A
:101C000090E0690790E4790760F32B8F3C8FDB014C
:101C1000CA018F779070A070B07080349105A105D3
:101C2000B10561F447FD0AC0E114F1040105110595
:101C300029F0405C5F4F6F4F7F4F40781A8EFE1740
:101C400011F081E08A8F4D8F5E8F6F8F78A383E0D4
:101C5000898FCE0149960E94150FA096E2E10C945F
:101C6000D710A8E1B0E0E7E3FEE00C94C710698369
:101C70007A838B839C832D833E834F83588789E0AF
:101C8000E82EF12CEC0EFD1ECE010196B7010E944C
:101C9000EA0F8E010F5E1F4FCE010596B8010E941C
:101CA000EA0F8985823040F08989823028F0C701A7
:101CB000B8010E94621001C08FEF6896E6E00C94B4
:101CC000E310A8E1B0E0E7E6FEE00C94C7106983FA
:101CD0007A838B839C832D833E834F83588789E04F
:101CE000E82EF12CEC0EFD1ECE010196B7010E94EC
:101CF000EA0F8E010F5E1F4FCE010596B8010E94BC
:101D0000EA0F8985823040F08989823028F0C70146
:101D1000B8010E94621001C08FEF6896E6E00C9453
:101D2000E310A8E1B0E0E7E9FEE00C94C710698396
:101D30007A838B839C832D833E834F83588789E0EE
:101D4000E82EF12CEC0EFD1ECE010196B7010E948B
:101D5000EA0F8E010F5E1F4FCE010596B8010E945B
:101D6000EA0F8985823040F08989823028F0C701E6
:101D7000B8010E94621001C081E06896E6E00C9410
:101D8000E310ACE0B0E0E7ECFEE00C94CB1069832C
:101D90007A838B839C83CE010196BE016B5F7F4F5C
:101DA0000E94EA0F8D81823061F1823050F18430DF
:101DB00021F48E81882351F12EC02F81388537FD83
:101DC00020C06E812F3131051CF06623F9F023C04D
:101DD0008EE190E0821B930B29853A854B855C85CB
:101DE00004C056954795379527958A95D2F766236F
:101DF000B1F050954095309521953F4F4F4F5F4F33
:101E00000EC020E030E040E050E009C02FEF3FEF8F
:101E10004FEF5FE704C020E030E040E050E8B90158
:101E2000CA012C96E2E00C94E710DF92EF92FF9249
:101E30000F931F93FC01E480F58006811781D18008
:101E40008081823048F480E090E0A0E1B0E0E82AB0
:101E5000F92A0A2B1B2BA5C0843009F49FC08230BD
:101E600021F4EE24FF24870105C0E114F1040105EB
:101E7000110519F4E0E0F0E096C0628173819FEFF4
:101E8000623879070CF05BC022E83FEF261B370B66
:101E90002A3131052CF020E030E040E050E02AC04B
:101EA000B801A701022E04C076956795579547950E
:101EB0000A94D2F781E090E0A0E0B0E004C0880F7F
:101EC000991FAA1FBB1F2A95D2F70197A109B10933
:101ED0008E219F21A023B1230097A105B10521F0F8
:101EE00081E090E0A0E0B0E09A01AB01282B392B13
:101EF0004A2B5B2BDA01C9018F779070A070B0700C
:101F000080349105A105B10539F427FF09C0205C93
:101F10003F4F4F4F5F4F04C0215C3F4F4F4F5F4FCC
:101F2000E0E0F0E02030A0E03A07A0E04A07A0E4BB
:101F30005A0710F0E1E0F0E079018A0127C060382B
:101F4000710564F5FB01E158FF4FD801C7018F7798
:101F50009070A070B07080349105A105B10539F47E
:101F6000E7FE0DC080E490E0A0E0B0E004C08FE3A5
:101F700090E0A0E0B0E0E80EF91E0A1F1B1F17FF5B
:101F800005C016950795F794E794319687E0169566
:101F90000795F794E7948A95D1F705C0EE24FF24BE
:101FA0008701EFEFF0E06E2F679566276795902F1A
:101FB0009F77D794DD24D7948E2F8695492F462B73
:101FC000582F5D29B701CA011F910F91FF90EF9023
:101FD000DF900895FC01DB01408151812281622F55
:101FE0006F7770E0221F2227221F9381892F880F8D
:101FF000822B282F30E0991F9927991F11969C93C7
:10200000119721153105A9F5411551056105710596
:1020100011F482E037C082E89FEF13969C938E9371
:1020200012979A01AB0167E0220F331F441F551F1F
:102030006A95D1F783E08C930DC0220F331F441FA4
:10204000551F12968D919C911397019713969C930F
:102050008E931297203080E0380780E0480780E4B4
:10206000580758F314962D933D934D935C9317970F
:1020700008952F3F310579F441155105610571052A
:1020800019F484E08C93089564FF03C081E08C937D
:1020900012C01C9210C02F57304013963C932E93C1
:1020A000129783E08C9387E0440F551F661F771FBC
:1020B0008A95D1F7706414964D935D936D937C93DC
:1020C000179708951F93DC01FB019C91923008F44F
:1020D00047C08081823008F443C0943051F4119697
:1020E0001C91843099F58181682F70E0611B710922
:1020F0003FC0843021F0923031F48230B9F18181D7
:10210000882389F12DC011961C9111978230F1F02E
:1021100081811817D9F412962D913C9113978281E1
:1021200093818217930794F028173907BCF014960F
:102130008D919D910D90BC91A02D2481358146817A
:102140005781281739074A075B0718F4112341F014
:102150000AC082179307A407B50740F4112319F0AA
:1021600061E070E005C06FEF7FEF02C060E070E0FB
:10217000CB011F9108952F923F924F925F926F92E1
:102180007F928F929F92AF92BF92CF92DF92EF9207
:10219000FF920F931F93CF93DF93CDB7DEB7CA1B88
:1021A000DB0B0FB6F894DEBF0FBECDBF09942A88B3
:1021B000398848885F846E847D848C849B84AA845B
:1021C000B984C884DF80EE80FD800C811B81AA81E8
:1021D000B981CE0FD11D0FB6F894DEBF0FBECDBFB3
:1021E000ED010895FB01DC018D9101908019011032
:1021F000D9F3990B0895FB019F01E8944230C4F094
:102200004532B4F44A3029F497FB1EF49095819539
:102210009F4F642F77270E942C11805D8A330CF02A
:10222000895D8193CB010097A1F716F45DE251938C
:102230001082C9010C941C11DC01FC01672F719103
:102240007723E1F7329704C07C916D93708362919C
:10225000AE17BF07C8F30895AA1BBB1B51E107C007
:10226000AA1FBB1FA617B70710F0A61BB70B881F26
:10227000991F5A95A9F780959095BC01CD010895B5
:04228000F894FFCF00
:0C22840041374100000000000000000095
:00000001FF
